:1000000019C033C032C031C030C02FC02EC0D6C6D8
:100010002CC02BC02AC08EC628C027C026C025C031
:1000200024C023C022C021C020C01FC01EC01DC0CC
:10003000CCC81BC011241FBECFEFD4E0DEBFCDBFA4
:1000400011E0A0E0B1E0EEE1F8E102C005900D9210
:10005000A034B107D9F721E0A0E4B1E001C01D92BE
:10006000A635B207E1F7BCD2D8CBCACFCF93DF9386
:10007000CDB7DEB7D4D06DD09FD00000DF91CF9147
:100080000895CF93DF93CDB7DEB72C970FB6F894D2
:10009000DEBF0FBECDBF69877A878B879C87898536
:1000A0009A85AB85BC858D839E83AF83B887198283
:1000B0001A821B821C820BC089819A81AB81BC8110
:1000C0000196A11DB11D89839A83AB83BC832981CD
:1000D0003A814B815C818D819E81AF81B8852817E3
:1000E00039074A075B0740F300002C960FB6F894D7
:1000F000DEBF0FBECDBFDF91CF910895CF93DF93C9
:10010000CDB7DEB78AE290E02AE230E0F901208143
:100110002068FC0120838BE290E02BE230E0F901C3
:1001200020812F77FC0120830000DF91CF9108957B
:10013000CF93DF93CDB7DEB78BE290E02BE230E0D8
:10014000F90120812068FC0120830000DF91CF911C
:100150000895CF93DF93CDB7DEB784E290E024E239
:1001600030E0F90120812160FC0120830000DF9153
:10017000CF910895CF93DF93CDB7DEB785E290E0BE
:1001800025E230E0F90120812160FC01208300009C
:10019000DF91CF910895CF93DF93CDB7DEB785E29E
:1001A00090E025E230E0F90120812E7FFC012083E0
:1001B0000000DF91CF910895CF93DF93CDB7DEB7E5
:1001C00084E290E024E230E0F90120812260FC0129
:1001D00020830000DF91CF910895CF93DF93CDB7B7
:1001E000DEB785E290E025E230E0F901208122606F
:1001F000FC0120830000DF91CF910895CF93DF931E
:10020000CDB7DEB785E290E025E230E0F90120814C
:100210002D7FFC0120830000DF91CF910895CF93C3
:10022000DF93CDB7DEB787E290E027E230E0F90157
:1002300020812F60FC0120830000DF91CF91089581
:10024000CF93DF931F92CDB7DEB7898388E290E02A
:1002500028E230E0F9012081622F2981422F50E00D
:1002600021E030E002C0220F331F4A95E2F7262B2F
:10027000FC01208300000F90DF91CF910895CF9370
:10028000DF931F92CDB7DEB7898388E290E028E242
:1002900030E0F9012081622F2981422F50E021E0D6
:1002A00030E002C0220F331F4A95E2F72095262343
:1002B000FC01208300000F90DF91CF910895CF9330
:1002C000DF93CDB7DEB7D2DE66DF81E099D052DFB3
:1002D00060EA7FE080E090E0D4DE0000DF91CF9123
:1002E0000895CF93DF931F92CDB7DEB78983BEDE2B
:1002F00052DF898185D03EDF62E370E080E090E0EC
:10030000C0DE00000F90DF91CF910895CF93DF936F
:100310001F92CDB7DEB78983A9DE3DDF898170D01A
:1003200029DF62E370E080E090E0ABDE00000F9038
:10033000DF91CF910895CF93DF9300D01F92CDB777
:10034000DEB78B8380E8898391DE25DF46DF1A8262
:100350001CC09B8189818923882349F08A81882F49
:1003600090E080509F4FFC0180816ADF08C08A8145
:10037000882F90E080509F4FFC01808180DF898131
:10038000869589838A818F5F8A838A81843008F386
:1003900035DF23DF8B8134D0EDDE62E370E080E077
:1003A00090E06FDE00000F900F900F90DF91CF91E3
:1003B0000895CF93DF9300D01F92CDB7DEB78A8325
:1003C0006B8380E889838A81882F90E0885F9E4FC5
:1003D000FC0190818B81890F9981890F898346DE89
:1003E000DADE89810DD0C6DE62E370E080E090E065
:1003F00048DE00000F900F900F90DF91CF9108958D
:10040000CF93DF9300D01F92CDB7DEB78B8380E808
:100410008983E3DE1A8221C09B8189818923882315
:1004200049F08A81882F90E080509F4FFC018081A5
:1004300007DF08C08A81882F90E080509F4FFC0121
:1004400080811DDF8981869589838A81833011F4BB
:10045000D5DEC3DE8A818F5F8A838A818830E0F2AD
:10046000CDDE00000F900F900F90DF91CF91089597
:10047000CF93DF93CDB7DEB741DE60E573EC80E06C
:1004800090E0FFDD55DE60E375E780E090E0F9DDA8
:1004900088E251DF14DF86E024DF8EE037DF0000E2
:1004A000DF91CF910895CF93DF931F92CDB7DEB741
:1004B0008983DCDD5FDE8981A3DF6DDE62E370E0CE
:1004C00080E090E0DEDD00000F90DF91CF91089595
:1004D000CF93DF9300D000D0CDB7DEB79B838A8364
:1004E0006C831982C3DD46DE19820DC08981882F95
:1004F00090E02A813B81820F931FFC018081D3DF32
:1005000089818F5F898399818C81981778F343DE85
:1005100000000F900F900F900F90DF91CF910895F2
:10052000CF93DF93CDB7DEB727970FB6F894DEBF32
:100530000FBECDBF9DDF43D07AD630D0D2D384E179
:1005400090E09A83898380E991E09C838B83298161
:100550003A8188EE93E0289FA001299F500D389F93
:10056000500D11242B813C81CA01B9012FD9CB0137
:1005700040979695879501969E838D838D818F8375
:100580008F81882F90E0A1D5000027960FB6F894B0
:10059000DEBF0FBECDBFDF91CF910895CF93DF9324
:1005A000CDB7DEB78AE290E02AE230E0F90120819F
:1005B000277CFC0120830000DF91CF910895CF9329
:1005C000DF93CDB7DEB784E290E024E230E0F901BA
:1005D00020812460FC0120830000DF91CF910895E9
:1005E000CF93DF93CDB7DEB765970FB6F894DEBF34
:1005F0000FBECDBF95DF198225E0409111015091CA
:100600001201609113017091140180911501909174
:10061000160120D188E48A831B82C0D38130E9F798
:100620006B818A81FFD38CD45FD087E08C831D825D
:100630001E8285E08F8382E08887198683E08A871F
:1006400084E08B871C8682E08D8784E08E8781E042
:100650008F87188A84E0898B83E08A8B1B8A87E0E6
:100660008C8B1D8A8981882341F4CE01049662E037
:1006700070E0FED581E08983D0CF8981813041F45B
:10068000CE01079662E070E0F3D582E08983C5CFA2
:100690008981823041F4CE010A9662E070E0E8D5AB
:1006A00083E08983BACF8981833041F4CE010D96EE
:1006B00062E070E0DDD584E08983AFCF898184304A
:1006C00041F4CE01409662E070E0D2D585E08983A6
:1006D000A4CF8981853009F0A0CFCE01439662E096
:1006E00070E0C6D5198299CFCF93DF93CDB7DEB72F
:1006F00066970FB6F894DEBF0FBECDBF9E8B8D8B75
:1007000080E1EFE2F1E0DE01159601900D928A950D
:10071000E1F719828D899E8999234CF48D899E89F0
:100720009195819591099E8B8D8B81E089831A82A9
:1007300038C08A818130A1F48A81882F90E02DE031
:1007400030E0A901481B590BCA019E012B5F3F4FA6
:10075000820F931F2EE2FC0120838A818F5F8A83A0
:100760008A81882F90E02DE030E0281B390B8D899D
:100770009E894AE050E0BA013DD840E3480FCE01DF
:100780000596820F931FFC0140838D899E892AE084
:1007900030E0B9012FD8CB019E8B8D8B8A818F5F82
:1007A0008A838A81863028F21B8288E08C833BC052
:1007B0008C81882F90E09E012B5F3F4F820F931F0B
:1007C000FC018081803319F48C818B3090F081E0C2
:1007D0008B838981813039F58C81882F90E0019756
:1007E0009E012B5F3F4F820F931F2DE2FC01208360
:1007F0001AC08C81882F90E09E012B5F3F4F820FA3
:10080000931FFC018081803371F48C81882F90E0EC
:100810009E012B5F3F4F820F931F20E2FC0120833C
:100820008C818F5F8C838B81882311F260E080E064
:10083000C0DDCE01059660E14BDE60E082E0B9DD0F
:10084000000066960FB6F894DEBF0FBECDBFDF91F5
:10085000CF910895CF93DF93CDB7DEB727970FB62B
:10086000F894DEBF0FBECDBF49835A836B837C8370
:100870008D839E832F8349815A816B817C818D81F9
:100880009E817FD120E043E060E080E031D120E82C
:1008900049815A816B817C818D819E81A2D02F817B
:1008A00049815A816B817C818D819E81ECD020E0D1
:1008B00049815A816B817C818D819E81BBD020E0F2
:1008C00049815A816B817C818D819E818AD0000013
:1008D00027960FB6F894DEBF0FBECDBFDF91CF9144
:1008E0000895EF92FF920F93CF93DF93CDB7DEB7CA
:1008F0002B970FB6F894DEBF0FBECDBF4A835B8344
:100900006C837D838E839F8328870987FB86EA8695
:100910004A815B816C817D818E819F8171D182E072
:10092000C6D18885C4D119820DC08981882F90E0F5
:100930002A853B85820F931FFC018081B8D1898174
:100940008F5F898399818985981778F34A815B81C4
:100950006C817D818E819F817FD100002B960FB6A7
:10096000F894DEBF0FBECDBFDF91CF910F91FF9006
:10097000EF900895EF920F93CF93DF93CDB7DEB74B
:1009800029970FB6F894DEBF0FBECDBF49835A83B7
:100990006B837C838D839E832F830887E9864981BF
:1009A0005A816B817C818D819E812AD185E07FD1A6
:1009B0008F817DD188857BD1898579D149815A8183
:1009C0006B817C818D819E8147D1000029960FB675
:1009D000F894DEBF0FBECDBFDF91CF910F91EF90A6
:1009E0000895EF920F93CF93DF93CDB7DEB727979C
:1009F0000FB6F894DEBF0FBECDBF49835A836B8319
:100A00007C838D839E832F83EF8000EE2FE04981CE
:100A10005A816B817C818D819E81ACDF000027969D
:100A20000FB6F894DEBF0FBECDBFDF91CF910F910F
:100A3000EF900895EF920F93CF93DF93CDB7DEB78A
:100A400027970FB6F894DEBF0FBECDBF49835A83F8
:100A50006B837C838D839E832F83EF8007E02FE061
:100A600049815A816B817C818D819E8183DF000069
:100A700027960FB6F894DEBF0FBECDBFDF91CF91A2
:100A80000F91EF900895EF92FF920F93CF93DF9322
:100A9000CDB7DEB727970FB6F894DEBF0FBECDBF38
:100AA00049835A836B837C838D839E832F838F81BD
:100AB000282F30E0C901880F991F820F931F895E8C
:100AC0009E4F7C0103E028E249815A816B817C8141
:100AD0008D819E8106DF000027960FB6F894DEBF59
:100AE0000FBECDBFDF91CF910F91FF90EF90089592
:100AF000CF93DF9300D000D0CDB7DEB789836A8370
:100B00004B832C8384E290E024E230E0F9012081E1
:100B10002860FC01208384E290E024E230E0F901C7
:100B200020812F7EFC01208384E290E024E230E0EB
:100B3000F90120812062FC0120838CE490E039815E
:100B40002A81432F422B2B81222F30E0220F331F8B
:100B5000220F331F342F322B2C812370232B20653F
:100B6000FC0120838DE490E02C8126952695FC01E4
:100B7000208300000F900F900F900F90DF91CF9186
:100B80000895CF93DF9300D000D000D0CDB7DEB76B
:100B900049835A836B837C838D839E8389819A8169
:100BA00029813A81F9012081622F2D81422F50E065
:100BB00021E030E002C0220F331F4A95E2F7262BD6
:100BC000FC0120838B819C812B813C81F901208158
:100BD000622F2D81422F50E021E030E002C0220F31
:100BE000331F4A95E2F7262BFC012083000026964E
:100BF0000FB6F894DEBF0FBECDBFDF91CF91089541
:100C0000CF93DF9300D000D000D0CDB7DEB74983BB
:100C10005A836B837C838D839E838B819C812B8104
:100C20003C81F9012081622F2D81422F50E021E08B
:100C300030E002C0220F331F4A95E2F720952623A9
:100C4000FC012083000026960FB6F894DEBF0FBE8D
:100C5000CDBFDF91CF910895CF93DF9300D000D027
:100C600000D0CDB7DEB749835A836B837C838D83F5
:100C70009E838B819C812B813C81F9012081622F95
:100C80002D81422F50E021E030E002C0220F331FBF
:100C90004A95E2F7262BFC012083000026960FB62A
:100CA000F894DEBF0FBECDBFDF91CF910895CF93F3
:100CB000DF931F92CDB7DEB789838EE490E0298160
:100CC000FC01208300008DE490E0FC0180818823FA
:100CD000D4F78EE490E0FC0180810F90DF91CF91FA
:100CE0000895CF93DF93CDB7DEB780E890E020E89A
:100CF00030E0F90120812260FC01208381E890E04E
:100D000021E830E0F90120812560FC01208387E49F
:100D100090E023EBFC0120838FE690E02FE630E0AB
:100D2000F90120812260FC01208378940000DF918A
:100D3000CF9108951F920F9200905F000F9211249F
:100D40008F93CF93DF93CDB7DEB781E080934001DF
:100D5000809141018F5F80934101809143018F5FBA
:100D60008093430180914101843629F4109241011E
:100D700081E080934201809143018A3029F41092EE
:100D8000430181E0809344010000DF91CF918F9176
:100D90000F9000925F000F901F901895CF93DF93F4
:100DA000CDB7DEB780914001813021F4109240012F
:100DB00081E001C080E0DF91CF9108951F920F92F2
:100DC00000905F000F9211248F93CF93DF93CDB7E4
:100DD000DEB781E080934501809147018F5F80936A
:100DE0004701809147018A3099F481E08093460160
:100DF000809148018F5F8093480110924701809154
:100E000048018A3029F481E0809349011092480119
:100E10000000DF91CF918F910F9000925F000F90B3
:100E20001F901895CF93DF9300D000D01F92CDB7BD
:100E3000DEB78C836D838C81880F89835BD189EBCE
:100E400090E0FC018081882F90E0887F99270897A7
:100E500011F081E06DC089816ED189EB90E0FC01D9
:100E60008081882F90E0887F9927489711F081E052
:100E70005FC08D8160D189EB90E0FC018081882F7B
:100E800090E0887F9927889711F081E051C032D196
:100E900089EB90E0FC018081882F90E0887F992782
:100EA000409711F081E044C08C81882F90E0880F3A
:100EB000991F8160898389813ED189EB90E0FC0193
:100EC0008081882F90E0887F99278034910511F0E8
:100ED00081E02EC04CD18A8389EB90E0FC018081B7
:100EE000882F90E0887F99278035910511F081E067
:100EF0001FC054D18B8389EB90E0FC018081882F47
:100F000090E0887F99278835910511F081E010C025
:100F100005D18A81882F90E0382F22278B81882F56
:100F200090E0820F931F90934C0180934B0180E0DF
:100F30000F900F900F900F900F90DF91CF91089529
:100F4000CF93DF93CDB7DEB727970FB6F894DEBF08
:100F50000FBECDBF1B8280914B0190914C01992314
:100F600014F481509F4F892F990F990B9A8389838D
:100F700080914B0190914C01092E000CAA0BBB0BE8
:100F8000BC01CD0110D3DC01CB0120E030E040E812
:100F900053E4BC01CD016CD2DC01CB018C839D8379
:100FA000AE83BF8389819A81992394F489819A8140
:100FB0009195819591099A8389838C819D81AE81D8
:100FC000BF81B0588C839D83AE83BF8381E08B83C8
:100FD00089819A81092E000CAA0BBB0BBC01CD01A3
:100FE000E2D2DC01CB019C01AD016C817D818E815F
:100FF0009F81D5D1DC01CB018C839D83AE83BF83E0
:1010000020E030E040E85EE36C817D818E819F814D
:101010002BD288232CF41C821D821E821F821CC0AE
:1010200020E030E040E45FE36C817D818E819F8130
:101030001BD288234CF480E090E0A0E0BFE38C83D7
:101040009D83AE83BF8308C080E090E0A0E8BFE34B
:101050008C839D83AE83BF8389819A81092E000C86
:10106000AA0BBB0BBC01CD019ED2DC01CB012C81B4
:101070003D814E815F81BC01CD0192D1DC01CB016C
:1010800020E030E040E251E4BC01CD013CD3DC0182
:10109000CB01BC01CD0154D2DC01CB019A83898301
:1010A0008B81813039F489819A819195819591095B
:1010B0009A83898389819A8127960FB6F894DEBF37
:1010C0000FBECDBFDF91CF910895CF93DF931F92D5
:1010D000CDB7DEB789838CEB90E024E4FC0120835C
:1010E00088EB90E02981FC01208300000F90DF91C4
:1010F000CF910895CF93DF93CDB7DEB78CEB90E01F
:1011000024EAFC01208300008CEB90E0FC0180814C
:101110008823D4F70000DF91CF910895CF93DF9318
:10112000CDB7DEB78CEB90E024E9FC012083000012
:10113000DF91CF910895CF93DF931F92CDB7DEB7A4
:1011400089838BEB90E02981FC0120838CEB90E07C
:1011500024E8FC01208300008CEB90E0FC018081FE
:101160008823D4F700000F90DF91CF910895CF939B
:10117000DF93CDB7DEB78CEB90E024ECFC0120834D
:1011800000008CEB90E0FC0180818823D4F78BEB8E
:1011900090E0FC018081DF91CF910895CF93DF93A0
:1011A000CDB7DEB78CEB90E024E8FC012083000093
:1011B0008CEB90E0FC0180818823D4F78BEB90E0EE
:1011C000FC018081DF91CF9108951F920F920090D2
:1011D0005F000F9211242F933F938F939F93EF9370
:1011E000FF93CF93DF93CDB7DEB781E080934A01C1
:1011F00089EB90E0FC018081887F80934D018CEB2E
:1012000090E02CEB30E0F90120812068FC01208384
:101210000000DF91CF91FF91EF919F918F913F91CE
:101220002F910F9000925F000F901F901895CF9311
:10123000DF93CDB7DEB780910C0190910D01209125
:101240000C0130910D01F9012081622F20911001D4
:10125000422F50E021E030E002C0220F331F4A95B8
:10126000E2F7262BFC0120830000DF91CF91089547
:10127000CF93DF9300D000D0CDB7DEB79A838983B8
:101280007C836B8380910E0190910F0120910E0160
:1012900030910F01F9012081622F20911001422F1E
:1012A00050E021E030E002C0220F331F4A95E2F700
:1012B00020952623FC01208380910E0190910F013F
:1012C00090935501809354018091100180934E01B9
:1012D00089819A819093530180935201CE010396A4
:1012E0009093500180934F01F8943F934F935F93F5
:1012F0006F937F938F939F93AF93BF93CF93DF931E
:10130000EF93FF9390914E01A0915201B091530140
:10131000E0914F01F0915001C191D081E0915401D1
:10132000F0E041E0903019F09A95440FFBCF342F54
:1013300030957EEF8D91880F60F05081542B508353
:101340005081532350830000000000000000000083
:101350000CC05081542B508300000000000000009E
:1013600000000000508153235083770F20F3219712
:1013700000F7FF91EF91DF91CF91BF91AF919F91D6
:101380008F917F916F915F914F913F917894000081
:101390000F900F900F900F90DF91CF9108955058BC
:1013A000BB27AA270ED075C166D130F06BD120F0D3
:1013B00031F49F3F11F41EF45BC10EF4E095E7FB9E
:1013C00051C1E92F77D180F3BA17620773078407F9
:1013D000950718F071F49EF58FC10EF4E0950B2E71
:1013E000BA2FA02D0B01B90190010C01CA01A00177
:1013F0001124FF27591B99F0593F50F4503E68F1D2
:101400001A16F040A22F232F342F4427585FF3CF12
:10141000469537952795A795F0405395C9F77EF4E3
:101420001F16BA0B620B730B840BBAF09150A1F02C
:10143000FF0FBB1F661F771F881FC2F70EC0BA0FB2
:10144000621F731F841F48F4879577956795B7953A
:10145000F7959E3F08F0B3CF9395880F08F0992732
:10146000EE0F979587950895D9D008F481E00895F7
:101470000CD00FC107D140F0FED030F021F45F3F17
:1014800019F0F0C0511139C1F3C014D198F3992368
:10149000C9F35523B1F3951B550BBB27AA27621738
:1014A0007307840738F09F5F5F4F220F331F441F7D
:1014B000AA1FA9F333D00E2E3AF0E0E830D09150B5
:1014C0005040E695001CCAF729D0FE2F27D0660FA2
:1014D000771F881FBB1F261737074807AB07B0E8E1
:1014E00009F0BB0B802DBF01FF2793585F4F2AF0F7
:1014F0009E3F510568F0B6C000C15F3FECF3983ED7
:10150000DCF3869577956795B795F7959F5FC9F753
:10151000880F911D9695879597F90895E1E0660FDC
:10152000771F881FBB1F621773078407BA0720F055
:10153000621B730B840BBA0BEE1F88F7E0950895BE
:1015400004D06894B111D9C00895BCD088F09F57D9
:1015500090F0B92F9927B751A0F0D1F0660F771FFF
:10156000881F991F1AF0BA95C9F712C0B13081F0DF
:10157000C3D0B1E00895C0C0672F782F8827B85F27
:1015800039F0B93FCCF3869577956795B395D9F740
:101590003EF490958095709561957F4F8F4F9F4F4A
:1015A0000895E89409C097FB3EF490958095709556
:1015B00061957F4F8F4F9F4F9923A9F0F92F96E99F
:1015C000BB279395F695879577956795B795F11114
:1015D000F8CFFAF4BB0F11F460FF1BC06F5F7F4FB1
:1015E0008F4F9F4F16C0882311F096E911C07723C3
:1015F00021F09EE8872F762F05C0662371F096E8CC
:10160000862F70E060E02AF09A95660F771F881F9A
:10161000DAF7880F9695879597F90895990F00083E
:10162000550FAA0BE0E8FEEF16161706E807F907B4
:10163000C0F012161306E407F50798F0621B730B4F
:10164000840B950B39F40A2661F0232B242B252BD0
:1016500021F408950A2609F4A140A6958FEF811D73
:10166000811D089597F99F6780E870E060E0089514
:101670009FEF80EC089500240A94161617061806AA
:101680000906089500240A94121613061406050686
:101690000895092E0394000C11F4882352F0BB0F17
:1016A00040F4BF2B11F460FF04C06F5F7F4F8F4F7A
:1016B0009F4F089557FD9058440F551F59F05F3FB5
:1016C00071F04795880F97FB991F61F09F3F79F064
:1016D00087950895121613061406551FF2CF4695E6
:1016E000F1DF08C0161617061806991FF1CF869568
:1016F0007105610508940895E894BB27662777274C
:10170000CB0197F908950BD0C4CFB5DF28F0BADF2D
:1017100018F0952309F0A6CFABCF1124EECFCADF86
:10172000A0F3959FD1F3950F50E0551F629FF001F4
:10173000729FBB27F00DB11D639FAA27F00DB11D4D
:10174000AA1F649F6627B00DA11D661F829F2227D6
:10175000B00DA11D621F739FB00DA11D621F839F5D
:10176000A00D611D221F749F3327A00D611D231F33
:10177000849F600D211D822F762F6A2F11249F5781
:1017800050408AF0E1F088234AF0EE0FFF1FBB1FA4
:10179000661F771F881F91505040A9F79E3F510543
:1017A00070F060CFAACF5F3FECF3983EDCF38695F4
:1017B00077956795B795F795E7959F5FC1F7FE2BEE
:1017C000880F911D9695879597F90895AA1BBB1BC5
:1017D00051E107C0AA1FBB1FA617B70710F0A61B31
:1017E000B70B881F991F5A95A9F780959095BC0152
:1017F000CD01089597FB072E16F4009406D077FDCF
:1018000008D0E4DF07FC05D03EF4909581959F4F0A
:0E1810000895709561957F4F0895F894FFCF6D
:10181E000302010003020100004010502A002B00B9
:10182E000224002500030105B13105B11805B109E7
:10183E0005B10405B10305B10105B10002890049E6
:10184E00737474656D703A20202020202020430090
:00000001FF
