S01D00004865697A6B6F6572706572746865726D6F737461742E7372656334
S113000019C033C032C031C030C02FC02EC0E1C6C9
S11300102CC02BC02AC099C628C027C026C025C022
S113002024C023C022C021C020C01FC01EC01DC0C8
S1130030BEC91BC011241FBECFEFD4E0DEBFCDBFAD
S113004011E0A0E0B1E0E4EDF5E102C005900D920D
S1130050AE36B107D9F721E0AEE6B1E001C01D929A
S1130060A938B207E1F77ED3B3CACACFCF93DF93DF
S113007000D000D000D0CDB7DEB79C838B837E83C5
S11300806D832D813E818B819C81A901481B590B75
S1130090CA019A83898389819A8145974CF462E0E5
S11300A070E080E091E0D6D980E090E016D543C0BE
S11300B089819A8189974CF462E070E083E091E051
S11300C0C9D981E090E009D536C089819A81CD975C
S11300D04CF462E070E086E091E0BCD982E090E00C
S11300E0FCD429C089819A81813591054CF462E060
S11300F070E089E091E0AED983E090E0EED41BC0DB
S113010089819A81853691054CF462E070E08CE037
S113011091E0A0D984E090E0E0D40DC089819A8177
S11301208937910544F462E070E08FE091E092D960
S113013085E090E0D2D4000026960FB6F894DEBF96
S11301400FBECDBFDF91CF910895CF93DF93CDB78D
S1130150DEB7D4D06DD09FD00000DF91CF91089549
S1130160CF93DF93CDB7DEB72C970FB6F894DEBFED
S11301700FBECDBF69877A878B879C8789859A85CF
S1130180AB85BC858D839E83AF83B88719821A8221
S11301901B821C820BC089819A81AB81BC81019630
S11301A0A11DB11D89839A83AB83BC8329813A81C4
S11301B04B815C818D819E81AF81B8852817390779
S11301C04A075B0740F300002C960FB6F894DEBF95
S11301D00FBECDBFDF91CF910895CF93DF93CDB7FD
S11301E0DEB78AE290E02AE230E0F901208120685B
S11301F0FC0120838BE290E02BE230E0F9012081C6
S11302002F77FC0120830000DF91CF910895CF93D5
S1130210DF93CDB7DEB78BE290E02BE230E0F9015B
S113022020812068FC0120830000DF91CF91089594
S1130230CF93DF93CDB7DEB784E290E024E230E0E1
S1130240F90120812160FC0120830000DF91CF911E
S11302500895CF93DF93CDB7DEB785E290E025E232
S113026030E0F90120812160FC0120830000DF914E
S1130270CF910895CF93DF93CDB7DEB785E290E0B9
S113028025E230E0F90120812E7FFC01208300006B
S1130290DF91CF910895CF93DF93CDB7DEB784E29A
S11302A090E024E230E0F90120812260FC01208307
S11302B00000DF91CF910895CF93DF93CDB7DEB7E0
S11302C085E290E025E230E0F90120812260FC0122
S11302D020830000DF91CF910895CF93DF93CDB7B2
S11302E0DEB785E290E025E230E0F90120812D7F40
S11302F0FC0120830000DF91CF910895CF93DF9319
S1130300CDB7DEB787E290E027E230E0F901208143
S11303102F60FC0120830000DF91CF910895CF93DB
S1130320DF931F92CDB7DEB7898388E290E028E29D
S113033030E0F9012081622F2981422F50E021E031
S113034030E002C0220F331F4A95E2F7262BFC014E
S1130350208300000F90DF91CF910895CF93DF9316
S11303601F92CDB7DEB7898388E290E028E230E0BF
S1130370F9012081622F2981422F50E021E030E0F1
S113038002C0220F331F4A95E2F720952623FC0171
S1130390208300000F90DF91CF910895CF93DF93D6
S11303A0CDB7DEB7D2DE66DF81E099D052DF60EAF6
S11303B07FE080E090E0D4DE0000DF91CF910895EB
S11303C0CF93DF931F92CDB7DEB78983BEDE52DFB2
S11303D0898185D03EDF62E370E080E090E0C0DE9A
S11303E000000F90DF91CF910895CF93DF931F9278
S11303F0CDB7DEB78983A9DE3DDF898170D029DFDF
S113040062E370E080E090E0ABDE00000F90DF91EB
S1130410CF910895CF93DF9300D01F92CDB7DEB76D
S11304208B8380E8898391DE25DF46DF1A821CC036
S11304309B8189818923882349F08A81882F90E0D0
S11304408E5E9E4FFC0180816ADF08C08A81882FFE
S113045090E08E5E9E4FFC01808180DF89818695CD
S113046089838A818F5F8A838A81843008F335DFA8
S113047023DF8B8134D0EDDE62E370E080E090E036
S11304806FDE00000F900F900F90DF91CF910895D1
S1130490CF93DF9300D01F92CDB7DEB78A836B83EF
S11304A080E889838A81882F90E0865E9E4FFC01D4
S11304B090818B81890F9981890F898346DEDADEE9
S11304C089810DD0C6DE62E370E080E090E048DE12
S11304D000000F900F900F90DF91CF910895CF936C
S11304E0DF9300D01F92CDB7DEB78B8380E889837A
S11304F0E3DE1A8221C09B8189818923882349F004
S11305008A81882F90E08E5E9E4FFC01808107DFF8
S113051008C08A81882F90E08E5E9E4FFC01808106
S11305201DDF8981869589838A81833011F4D5DE24
S1130530C3DE8A818F5F8A838A818830E0F2CDDED0
S113054000000F900F900F90DF91CF910895CF93FB
S1130550DF93CDB7DEB741DE60E573EC80E090E079
S1130560FFDD55DE60E375E780E090E0F9DD88E2C9
S113057051DF14DF86E024DF8EE037DF0000DF91F7
S1130580CF910895CF93DF931F92CDB7DEB78983C0
S1130590DCDD5FDE8981A3DF6DDE62E370E080E095
S11305A090E0DEDD00000F90DF91CF910895CF93AE
S11305B0DF9300D000D0CDB7DEB79B838A836C83F2
S11305C01982C3DD46DE19820DC08981882F90E02F
S11305D02A813B81820F931FFC018081D3DF8981B3
S11305E08F5F898399818C81981778F343DE0000AB
S11305F00F900F900F900F90DF91CF910895CF93AC
S1130600DF93CDB7DEB727970FB6F894DEBF0FBEE2
S1130610CDBF9DDF96D0FDD631D06ED33DD284E1DF
S113062090E09A83898380E991E09C838B8329817C
S11306303A8188EE93E0289FA001299F500D389FAE
S1130640500D11242B813C81CA01B9019AD7CB01E9
S113065040979695879501969E838D838D818F8390
S11306608F81882F90E023D6000027960FB6F89448
S1130670DEBF0FBECDBFDF91CF910895CF93DF933F
S1130680CDB7DEB78AE290E02AE230E0F9012081BA
S1130690277CFC0120830000DF91CF910895CF9344
S11306A0DF93CDB7DEB780911E0180937C018091EA
S11306B01F0180937D018091200180937A018091B4
S11306C0210180937B0189E290E0FC0180818072AA
S11306D080931E0189E290E0FC0180818071809307
S11306E01F0189E290E0FC018081887080932001E1
S11306F089E290E0FC0180818470809321018091E3
S11307001E01882331F480917C01882311F081E05B
S113071015C080911F01882331F480917D018823C5
S113072011F082E00BC080912001882331F4809184
S11307307A01882311F083E001C080E0DF91CF913A
S11307400895CF93DF93CDB7DEB784E290E024E23F
S113075030E0F90120812460FC0120830000DF9156
S1130760CF910895CF93DF9300D000D000D0CDB7C0
S1130770DEB745DF85E68B8386EE90E09A83898336
S113078025E0409127015091280160912901709141
S11307902A0180912B0190912C0130D00AD3813011
S11307A0E9F74BD3D6D39D838C838C819D810BD465
S11307B076DF8E838B81882F90E085369105E1F476
S11307C089819A8165E6B5D48E81823031F489813C
S11307D09A8105969A83898308C08E81813029F491
S11307E089819A8105979A83898329813A818C81A9
S11307F09D81B9013BDC01C00000D0CFCF93DF93D2
S1130800CDB7DEB727970FB6F894DEBF0FBECDBFC6
S113081049835A836B837C838D839E832F83498191
S11308205A816B817C818D819E81B6D120E043E029
S113083060E080E068D120E849815A816B817C8145
S11308408D819E81A2D02F8149815A816B817C81C7
S11308508D819E81ECD020E049815A816B817C811D
S11308608D819E81BBD020E049815A816B817C813E
S11308708D819E818AD0000027960FB6F894DEBF42
S11308800FBECDBFDF91CF910895EF92FF920F93EA
S1130890CF93DF93CDB7DEB72B970FB6F894DEBFB7
S11308A00FBECDBF4A835B836C837D838E839F831E
S11308B028870987FB86EA864A815B816C817D8172
S11308C08E819F81A8D182E0FDD18885FBD11982D8
S11308D00DC08981882F90E02A853B85820F931F64
S11308E0FC018081EFD189818F5F8983998189851A
S11308F0981778F34A815B816C817D818E819F8119
S1130900B6D100002B960FB6F894DEBF0FBECDBF54
S1130910DF91CF910F91FF90EF900895EF920F9395
S1130920CF93DF93CDB7DEB729970FB6F894DEBF28
S11309300FBECDBF49835A836B837C838D839E8393
S11309402F830887E98649815A816B817C818D8157
S11309509E8161D185E0B6D18F81B4D18885B2D131
S11309608985B0D149815A816B817C818D819E8139
S11309707ED1000029960FB6F894DEBF0FBECDBF1E
S1130980DF91CF910F91EF900895EF920F93CF9352
S1130990DF93CDB7DEB727970FB6F894DEBF0FBE4F
S11309A0CDBF49835A836B837C838D839E832F833E
S11309B0EF8000EE2FE049815A816B817C818D812B
S11309C09E81ACDF000027960FB6F894DEBF0FBE01
S11309D0CDBFDF91CF910F91EF900895EF920F93D8
S11309E0CF93DF93CDB7DEB727970FB6F894DEBF6A
S11309F00FBECDBF49835A836B837C838D839E83D3
S1130A002F83EF8007E02FE049815A816B817C813D
S1130A108D819E8183DF000027960FB6F894DEBF98
S1130A200FBECDBFDF91CF910F91EF900895EF925C
S1130A30FF920F93CF93DF93CDB7DEB727970FB60F
S1130A40F894DEBF0FBECDBF49835A836B837C838A
S1130A508D839E832F838F81282F30E0C901880FD7
S1130A60991F820F931F835D9E4F7C0103E028E250
S1130A7049815A816B817C818D819E8106DF0000D2
S1130A8027960FB6F894DEBF0FBECDBFDF91CF918E
S1130A900F91FF90EF900895CF93DF93CDB7DEB71A
S1130AA08AE290E02AE230E0F90120812064FC012E
S1130AB0208384E490E023E8FC01208385E490E033
S1130AC025E0FC01208387E490E020914501FC01AE
S1130AD020830000DF91CF910895CF93DF931F927D
S1130AE0CDB7DEB7898387E490E02981222F30E0F7
S1130AF02B5B3E4FF9012081FC01208300000F9005
S1130B00DF91CF910895CF93DF9300D000D0CDB77C
S1130B10DEB789836A834B832C8384E290E024E2EA
S1130B2030E0F90120812860FC01208384E290E018
S1130B3024E230E0F90120812F7EFC01208384E24D
S1130B4090E024E230E0F90120812062FC0120835E
S1130B508CE490E039812A81432F422B2B81222F70
S1130B6030E0220F331F220F331F342F322B2C81FE
S1130B702370232B2065FC0120838DE490E02C81DD
S1130B8026952695FC01208300000F900F900F906E
S1130B900F90DF91CF910895CF93DF9300D000D0D1
S1130BA000D0CDB7DEB749835A836B837C838D83B2
S1130BB09E8389819A8129813A81F9012081622F5A
S1130BC02D81422F50E021E030E002C0220F331F7C
S1130BD04A95E2F7262BFC0120838B819C812B8193
S1130BE03C81F9012081622F2D81422F50E021E0C8
S1130BF030E002C0220F331F4A95E2F7262BFC0196
S1130C002083000026960FB6F894DEBF0FBECDBF3A
S1130C10DF91CF910895CF93DF9300D000D000D01F
S1130C20CDB7DEB749835A836B837C838D839E83E0
S1130C308B819C812B813C81F9012081622F2D8144
S1130C40422F50E021E030E002C0220F331F4A95CA
S1130C50E2F720952623FC012083000026960FB698
S1130C60F894DEBF0FBECDBFDF91CF910895CF932F
S1130C70DF9300D000D000D0CDB7DEB749835A83CC
S1130C806B837C838D839E838B819C812B813C81B0
S1130C90F9012081622F2D81422F50E021E030E0C4
S1130CA002C0220F331F4A95E2F7262BFC01208352
S1130CB0000026960FB6F894DEBF0FBECDBFDF91BD
S1130CC0CF910895CF93DF931F92CDB7DEB7898379
S1130CD08EE490E02981FC01208300008DE490E003
S1130CE0FC0180818823D4F78EE490E0FC018081AC
S1130CF00F90DF91CF910895CF93DF93CDB7DEB7F7
S1130D0080E890E020E830E0F90120812260FC01D5
S1130D10208381E890E021E830E0F901208125601A
S1130D20FC01208387E490E023EBFC0120838FE621
S1130D3090E02FE630E0F90120812260FC0120835D
S1130D4078940000DF91CF9108951F920F92009044
S1130D505F000F9211248F93CF93DF93CDB7DEB74B
S1130D6081E080936E0180916F018F5F80936F01AA
S1130D70809171018F5F8093710180916F0184363E
S1130D8029F410926F0181E08093700180917101C8
S1130D908A3029F41092710181E08093720100007D
S1130DA0DF91CF918F910F9000925F000F901F9071
S1130DB01895CF93DF93CDB7DEB780916E01813064
S1130DC021F410926E0181E001C080E0DF91CF91A7
S1130DD008951F920F9200905F000F9211248F9339
S1130DE0CF93DF93CDB7DEB781E080937301809119
S1130DF075018F5F80937501809175018A3099F434
S1130E0081E080937401809176018F5F80937601F5
S1130E1010927501809176018A3029F481E08093E3
S1130E207701109276010000DF91CF918F910F909E
S1130E3000925F000F901F901895CF93DF9300D01E
S1130E401F92CDB7DEB780914B01880F898344D2BE
S1130E5089EB90E0FC018081882F90E0887F9927BE
S1130E60089711F081E06FC0898157D289EB90E037
S1130E70FC018081882F90E0887F9927489711F0A2
S1130E8081E061C08091780148D289EB90E0FC0157
S1130E908081882F90E0887F9927889711F081E0DE
S1130EA052C01AD289EB90E0FC018081882F90E037
S1130EB0887F9927409711F081E045C080914B01CC
S1130EC0882F90E0880F991F81608983898125D2BA
S1130ED089EB90E0FC018081882F90E0887F99273E
S1130EE08034910511F081E02EC033D28A8389EBDE
S1130EF090E0FC018081882F90E0887F99278035DD
S1130F00910511F081E01FC03BD28B8389EB90E007
S1130F10FC018081882F90E0887F9927883591058E
S1130F2011F081E010C0ECD18A81882F90E0382F35
S1130F3022278B81882F90E0820F931F90937F014B
S1130F4080937E0180E00F900F900F90DF91CF91FE
S1130F500895CF93DF93CDB7DEB780917E01909152
S1130F607F01992344F480917E0190917F019093B5
S1130F707F0180937E0180917E0190917F01892F72
S1130F80990F990B880F991F9C01220F331F220F71
S1130F90331FAC01420F531F80917E0190917F015A
S1130FA0880F892F881F990B9C0121703327C90151
S1130FB0880F991F880F991F820F931F840F951F05
S1130FC0DF91CF910895CF93DF93CDB7DEB76697C6
S1130FD00FB6F894DEBF0FBECDBF9E8B8D8B80E124
S1130FE0ECE4F1E0DE01159601900D928A95E1F7AB
S1130FF019828D899E8999234CF48D899E899195B6
S1131000819591099E8B8D8B81E089831A8238C0EA
S11310108A818130A1F48A81882F90E02DE030E02C
S1131020A901481B590BCA019E012B5F3F4F820F38
S1131030931F2EE2FC0120838A818F5F8A838A8139
S1131040882F90E02DE030E0281B390B8D899E8994
S11310504AE050E0BA01A9D240E3480FCE01059618
S1131060820F931FFC0140838D899E892AE030E022
S1131070B9019BD2CB019E8B8D8B8A818F5F8A8332
S11310808A81863028F21B8288E08C833BC08C8165
S1131090882F90E09E012B5F3F4F820F931FFC012E
S11310A08081803319F48C818B3090F081E08B83C4
S11310B08981813039F58C81882F90E001979E01D8
S11310C02B5F3F4F820F931F2DE2FC0120831AC038
S11310D08C81882F90E09E012B5F3F4F820F931FDE
S11310E0FC018081803371F48C81882F90E09E0113
S11310F02B5F3F4F820F931F20E2FC0120838C81E2
S11311008F5F8C838B81882311F260E080E0C0D9EB
S1131110CE01059660E14BDA60E082E0B9D90000C7
S113112066960FB6F894DEBF0FBECDBFDF91CF91A8
S11311300895CF93DF93CDB7DEB767970FB6F894D2
S1131140DEBF0FBECDBF9E8B8D8B6F8B80E1EDE537
S1131150F1E0DE01159601900D928A95E1F78F89F1
S11311608F3621F48BE58D838DE58C8B19828D89E7
S11311709E8999234CF48D899E8991958195910935
S11311809E8B8D8B81E089831A8238C08A8181305D
S1131190A1F48A81882F90E02DE030E0A901481B5A
S11311A0590BCA019E012B5F3F4F820F931F2EE202
S11311B0FC0120838A818F5F8A838A81882F90E053
S11311C02DE030E0281B390B8D899E894AE050E0E0
S11311D0BA01EBD140E3480FCE010596820F931F6D
S11311E0FC0140838D899E892AE030E0B901DDD17C
S11311F0CB019E8B8D8B8A818F5F8A838A81863017
S113120028F21B8288E08C833BC08C81882F90E07D
S11312109E012B5F3F4F820F931FFC01808180331F
S113122019F48C818A3090F081E08B83898181303C
S113123039F58C81882F90E001979E012B5F3F4FF9
S1131240820F931F2DE2FC0120831AC08C81882F0A
S113125090E09E012B5F3F4F820F931FFC01808122
S1131260803371F48C81882F90E09E012B5F3F4F77
S1131270820F931F20E2FC0120838C818F5F8C837B
S11312808B81882311F260E081E002D9CE010596BA
S113129060E18DD960E082E0FBD8000067960FB66C
S11312A0F894DEBF0FBECDBFDF91CF910895CF93E9
S11312B0DF931F92CDB7DEB789838CEB90E024E4F3
S11312C0FC01208388EB90E02981FC01208300004D
S11312D00F90DF91CF910895CF93DF93CDB7DEB711
S11312E08CEB90E024EAFC01208300008CEB90E07E
S11312F0FC0180818823D4F70000DF91CF91089509
S1131300CF93DF93CDB7DEB78CEB90E024E9FC01FB
S113131020830000DF91CF910895CF93DF931F9234
S1131320CDB7DEB789838BEB90E02981FC01208364
S11313308CEB90E024E8FC01208300008CEB90E02F
S1131340FC0180818823D4F700000F90DF91CF91B6
S11313500895CF93DF93CDB7DEB78CEB90E024EC08
S1131360FC01208300008CEB90E0FC018081882349
S1131370D4F78BEB90E0FC018081DF91CF9108954D
S1131380CF93DF93CDB7DEB78CEB90E024E8FC017C
S1131390208300008CEB90E0FC0180818823D4F74B
S11313A08BEB90E0FC018081DF91CF9108951F9237
S11313B00F9200905F000F9211242F933F938F930D
S11313C09F93EF93FF93CF93DF93CDB7DEB781E085
S11313D08093790189EB90E0FC018081887F809380
S11313E080018CEB90E02CEB30E0F9012081206847
S11313F0FC0120830000DF91CF91FF91EF919F9139
S11314008F913F912F910F9000925F000F901F904A
S11314101895CF93DF93CDB7DEB7809122019091D9
S113142023012091220130912301F9012081622FAF
S113143020912601422F50E021E030E002C0220F2B
S1131440331F4A95E2F7262BFC0120830000DF912D
S1131450CF910895CF93DF9300D000D0CDB7DEB7FE
S11314609A8389837C836B838091240190912501E5
S11314702091240130912501F9012081622F2091CE
S11314802601422F50E021E030E002C0220F331F3A
S11314904A95E2F720952623FC01208380912401BC
S11314A09091250190938801809387018091260172
S11314B08093810189819A8190938601809385012B
S11314C0CE0103969093830180938201F8943F9315
S11314D04F935F936F937F938F939F93AF93BF9338
S11314E0CF93DF93EF93FF9390918101A0918501B6
S11314F0B0918601E0918201F0918301C191D08184
S1131500E0918701F0E041E0903019F09A95440FA2
S1131510FBCF342F30957EEF8D91880F60F0508192
S1131520542B50835081532350830000000000004B
S1131530000000000CC05081542B508300000000B8
S11315400000000000000000508153235083770FF7
S113155020F3219700F7FF91EF91DF91CF91BF9195
S1131560AF919F918F917F916F915F914F913F9137
S1131570789400000F900F900F900F90DF91CF910F
S11315800895AA1BBB1B51E107C0AA1FBB1FA617C6
S1131590B70710F0A61BB70B881F991F5A95A9F718
S11315A080959095BC01CD01089597FB072E16F404
S11315B0009406D077FD08D0E4DF07FC05D03EF4A4
S11315C0909581959F4F0895709561957F4F0895EB
S10715D0F894FFCFB9
S11315D407000005020003040002040100040300E0
S11315E40700030201000302010000401050FFFF42
S11315F4FFFF2A002B000224002500030105B1315A
S113160405B11805B10905B10405B10305B1010516
S1131614B1000289002C261E171009482041637466
S113162475616C3A2020202020204320002054613E
S1111634726765743A20202020202043200095
S9030000FC
