:1000000019C033C032C031C030C02FC02EC0D3C5DC
:100010002CC02BC02AC06BC528C027C026C025C055
:1000200024C023C022C021C020C01FC01EC01DC0CC
:10003000F6C51BC011241FBECFEFD4E0DEBFCDBF7D
:1000400011E0A0E0B1E0E8ECFCE002C005900D9208
:10005000A033B107D9F721E0A0E3B1E001C01D92C0
:10006000A034B207E1F7B1D22DC6CACFCF93DF9348
:10007000CDB7DEB7D4D06DD09FD00000DF91CF9147
:100080000895CF93DF93CDB7DEB72C970FB6F894D2
:10009000DEBF0FBECDBF69877A878B879C87898536
:1000A0009A85AB85BC858D839E83AF83B887198283
:1000B0001A821B821C820BC089819A81AB81BC8110
:1000C0000196A11DB11D89839A83AB83BC832981CD
:1000D0003A814B815C818D819E81AF81B8852817E3
:1000E00039074A075B0740F300002C960FB6F894D7
:1000F000DEBF0FBECDBFDF91CF910895CF93DF93C9
:10010000CDB7DEB78AE290E02AE230E0F901208143
:100110002068FC0120838BE290E02BE230E0F901C3
:1001200020812F77FC0120830000DF91CF9108957B
:10013000CF93DF93CDB7DEB78BE290E02BE230E0D8
:10014000F90120812068FC0120830000DF91CF911C
:100150000895CF93DF93CDB7DEB784E290E024E239
:1001600030E0F90120812160FC0120830000DF9153
:10017000CF910895CF93DF93CDB7DEB785E290E0BE
:1001800025E230E0F90120812160FC01208300009C
:10019000DF91CF910895CF93DF93CDB7DEB785E29E
:1001A00090E025E230E0F90120812E7FFC012083E0
:1001B0000000DF91CF910895CF93DF93CDB7DEB7E5
:1001C00084E290E024E230E0F90120812260FC0129
:1001D00020830000DF91CF910895CF93DF93CDB7B7
:1001E000DEB785E290E025E230E0F901208122606F
:1001F000FC0120830000DF91CF910895CF93DF931E
:10020000CDB7DEB785E290E025E230E0F90120814C
:100210002D7FFC0120830000DF91CF910895CF93C3
:10022000DF93CDB7DEB787E290E027E230E0F90157
:1002300020812F60FC0120830000DF91CF91089581
:10024000CF93DF931F92CDB7DEB7898388E290E02A
:1002500028E230E0F9012081622F2981422F50E00D
:1002600021E030E002C0220F331F4A95E2F7262B2F
:10027000FC01208300000F90DF91CF910895CF9370
:10028000DF931F92CDB7DEB7898388E290E028E242
:1002900030E0F9012081622F2981422F50E021E0D6
:1002A00030E002C0220F331F4A95E2F72095262343
:1002B000FC01208300000F90DF91CF910895CF9330
:1002C000DF93CDB7DEB7D2DE66DF81E072D052DFDA
:1002D00060EA7FE080E090E0D4DE0000DF91CF9123
:1002E0000895CF93DF931F92CDB7DEB78983BEDE2B
:1002F00052DF89815ED03EDF62E370E080E090E013
:10030000C0DE00000F90DF91CF910895CF93DF936F
:100310001F92CDB7DEB78983A9DE3DDF898149D041
:1003200029DF62E370E080E090E0ABDE00000F9038
:10033000DF91CF910895CF93DF9300D01F92CDB777
:10034000DEB78B8380E8898391DE25DF46DF1A8262
:100350001CC09B8189818923882349F08A81882F49
:1003600090E080509F4FFC0180816ADF08C08A8145
:10037000882F90E080509F4FFC01808180DF898131
:10038000869589838A818F5F8A838A81843008F386
:1003900035DF23DF8B810DD0EDDE62E370E080E09E
:1003A00090E06FDE00000F900F900F90DF91CF91E3
:1003B0000895CF93DF9300D01F92CDB7DEB78B8324
:1003C00080E889830ADF1A8221C09B818981892381
:1003D000882349F08A81882F90E080509F4FFC014C
:1003E00080812EDF08C08A81882F90E080509F4F47
:1003F000FC01808144DF8981869589838A818330ED
:1004000011F4FCDEEADE8A818F5F8A838A8188307C
:10041000E0F2F4DE00000F900F900F90DF91CF918B
:100420000895CF93DF93CDB7DEB768DE60E573EC58
:1004300080E090E026DE7CDE60E375E780E090E01F
:1004400020DE88E278DF3BDF86E04BDF8EE05EDF98
:100450000000DF91CF910895CF93DF93CDB7DEB742
:10046000E0DF75D088D30DD405D018D30000DF911C
:10047000CF910895CF93DF93CDB7DEB78AE290E0B6
:100480002AE230E0F9012081237CFC012083000076
:10049000DF91CF910895CF93DF93CDB7DEB78091F1
:1004A000080180933D018091090180933E01809174
:1004B0000A0180933B0180910B0180933C0189E20A
:1004C00090E0FC01808180728093080189E290E0D5
:1004D000FC01808180718093090189E290E0FC0138
:1004E0008081887080930A0189E290E0FC0180811C
:1004F000847080930B0180910801882331F48091EE
:100500003D01882311F081E01FC0809109018823FB
:1005100031F480913E01882311F082E015C0809172
:100520000A01882331F480913B01882311F083E094
:100530000BC080910B01882331F480913C0188230A
:1005400011F084E001C080E0DF91CF910895CF9356
:10055000DF93CDB7DEB78AE290E02AE230E0F9011E
:1005600020812064FC01208384E290E024E230E0DA
:10057000F90120812460FC0120830000DF91CF91EC
:100580000895CF93DF931F92CDB7DEB7898389811A
:10059000843151F485E290E025E230E0F9012081D8
:1005A0002460FC0120830CC089818A3049F48BE2ED
:1005B00090E02BE230E0F90120812064FC012083EF
:1005C00000000F90DF91CF910895CF93DF93CDB7C7
:1005D000DEB742DF25E04091110150911201609198
:1005E00013017091140180911501909116010FD0A3
:1005F000B2D28130E9F74FDF813019F484E1C1DFF5
:10060000F7CF49DF8230A1F78AE0BBDFF1CFCF938C
:10061000DF93CDB7DEB727970FB6F894DEBF0FBED6
:10062000CDBF49835A836B837C838D839E832F83C5
:1006300049815A816B817C818D819E817FD120E0AF
:1006400043E060E080E031D120E849815A816B814C
:100650007C818D819E81A2D02F8149815A816B81BD
:100660007C818D819E81ECD020E049815A816B8113
:100670007C818D819E81BBD020E049815A816B8134
:100680007C818D819E818AD0000027960FB6F894D8
:10069000DEBF0FBECDBFDF91CF910895EF92FF92E5
:1006A0000F93CF93DF93CDB7DEB72B970FB6F894A8
:1006B000DEBF0FBECDBF4A835B836C837D838E8399
:1006C0009F8328870987FB86EA864A815B816C8144
:1006D0007D818E819F8171D182E0C6D18885C4D110
:1006E00019820DC08981882F90E02A853B85820F71
:1006F000931FFC018081B8D189818F5F89839981A3
:100700008985981778F34A815B816C817D818E8120
:100710009F817FD100002B960FB6F894DEBF0FBEED
:10072000CDBFDF91CF910F91FF90EF900895EF92A1
:100730000F93CF93DF93CDB7DEB729970FB6F89419
:10074000DEBF0FBECDBF49835A836B837C838D830D
:100750009E832F830887E98649815A816B817C813A
:100760008D819E812AD185E07FD18F817DD1888541
:100770007BD1898579D149815A816B817C818D8139
:100780009E8147D1000029960FB6F894DEBF0FBEB8
:10079000CDBFDF91CF910F91EF900895EF920F931E
:1007A000CF93DF93CDB7DEB727970FB6F894DEBFB0
:1007B0000FBECDBF49835A836B837C838D839E8319
:1007C0002F83EF8000EE2FE049815A816B817C817D
:1007D0008D819E81ACDF000027960FB6F894DEBFB6
:1007E0000FBECDBFDF91CF910F91EF900895EF92A3
:1007F0000F93CF93DF93CDB7DEB727970FB6F8945B
:10080000DEBF0FBECDBF49835A836B837C838D834C
:100810009E832F83EF8007E02FE049815A816B810F
:100820007C818D819E8183DF000027960FB6F8942E
:10083000DEBF0FBECDBFDF91CF910F91EF90089536
:10084000EF92FF920F93CF93DF93CDB7DEB7279749
:100850000FB6F894DEBF0FBECDBF49835A836B83BA
:100860007C838D839E832F838F81282F30E0C90165
:10087000880F991F820F931F895E9E4F7C0103E0B2
:1008800028E249815A816B817C818D819E8106DFBE
:10089000000027960FB6F894DEBF0FBECDBFDF91E4
:1008A000CF910F91FF90EF900895CF93DF9300D0F9
:1008B00000D0CDB7DEB789836A834B832C8384E273
:1008C00090E024E230E0F90120812860FC012083DF
:1008D00084E290E024E230E0F90120812F7EFC01E7
:1008E000208384E290E024E230E0F901208120625C
:1008F000FC0120838CE490E039812A81432F422B34
:100900002B81222F30E0220F331F220F331F342F71
:10091000322B2C812370232B2065FC0120838DE456
:1009200090E02C8126952695FC01208300000F90F5
:100930000F900F900F90DF91CF910895CF93DF9399
:1009400000D000D000D0CDB7DEB749835A836B8387
:100950007C838D839E8389819A8129813A81F901E3
:100960002081622F2D81422F50E021E030E002C033
:10097000220F331F4A95E2F7262BFC0120838B813F
:100980009C812B813C81F9012081622F2D81422F96
:1009900050E021E030E002C0220F331F4A95E2F719
:1009A000262BFC012083000026960FB6F894DEBFAC
:1009B0000FBECDBFDF91CF910895CF93DF9300D0CD
:1009C00000D000D0CDB7DEB749835A836B837C83D8
:1009D0008D839E838B819C812B813C81F9012081B9
:1009E000622F2D81422F50E021E030E002C0220F23
:1009F000331F4A95E2F720952623FC01208300004F
:100A000026960FB6F894DEBF0FBECDBFDF91CF9113
:100A10000895CF93DF9300D000D000D0CDB7DEB7DC
:100A200049835A836B837C838D839E838B819C81D6
:100A30002B813C81F9012081622F2D81422F50E0D2
:100A400021E030E002C0220F331F4A95E2F7262B47
:100A5000FC012083000026960FB6F894DEBF0FBE7F
:100A6000CDBFDF91CF910895CF93DF931F92CDB784
:100A7000DEB789838EE490E02981FC0120830000A9
:100A80008DE490E0FC0180818823D4F78EE490E02F
:100A9000FC0180810F90DF91CF910895CF93DF9378
:100AA000CDB7DEB780E890E020E830E0F9012081A2
:100AB0002260FC01208381E890E021E830E0F90128
:100AC00020812560FC01208387E490E023EBFC017A
:100AD00020838FE690E02FE630E0F901208122604C
:100AE000FC01208378940000DF91CF9108951F923C
:100AF0000F9200905F000F9211248F93CF93DF939A
:100B0000CDB7DEB781E080933001809131018F5FF6
:100B100080933101809133018F5F80933301809105
:100B20003101843629F41092310181E08093320141
:100B3000809133018A3029F41092330181E080934F
:100B400034010000DF91CF918F910F9000925F00F0
:100B50000F901F901895CF93DF93CDB7DEB780919C
:100B60003401813021F41092340181E001C080E031
:100B7000DF91CF910895CF93DF93CDB7DEB780EBB0
:100B800090E022E0FC01208381EB90E027E0FC0173
:100B9000208383EB90E023EBFC01208380E790E04F
:100BA00020E730E0F90120812260FC012083000071
:100BB000DF91CF9108951F920F9200905F000F92E6
:100BC00011248F93CF93DF93CDB7DEB781E080936D
:100BD0003501809137018F5F809337018091370114
:100BE0008A3099F481E080933601809138018F5FDB
:100BF0008093380110923701809138018A3029F4AE
:100C000081E080933901109238010000DF91CF918B
:100C10008F910F9000925F000F901F9018951F9278
:100C20000F9200905F000F9211242F933F938F93A8
:100C30009F93EF93FF93CF93DF93CDB7DEB781E020
:100C400080933A0189EB90E0FC018081887F80935A
:100C50003F018CEB90E02CEB30E0F9012081206823
:100C6000FC0120830000DF91CF91FF91EF919F91D4
:100C70008F913F912F910F9000925F000F901F90E6
:100C80001895CF93DF93CDB7DEB780910C0190918B
:100C90000D0120910C0130910D01F9012081622F8D
:100CA00020911001422F50E021E030E002C0220FDD
:100CB000331F4A95E2F7262BFC0120830000DF91C9
:080CC000CF910895F894FFCFD5
:100CC8000302010003020100FFFFFFFF2A002B00BF
:100CD8000224002500030105B13105B11805B10949
:100CE80005B10405B10305B10105B1000289000091
:00000001FF
