:1000000019C033C032C031C030C02FC02EC0F7C6B7
:100010002CC02BC02AC09FC628C027C026C025C020
:1000200024C023C022C021C020C01FC01EC01DC0CC
:1000300012C91BC011241FBECFEFD4E0DEBFCDBF5D
:1000400011E0A0E0B1E0ECE7F4E102C005900D9210
:10005000AC36B107D9F721E0ACE6B1E001C01D92A2
:10006000A738B207E1F77ED307CACACFCF93DF9391
:1000700000D000D000D0CDB7DEB79C838B837E83C9
:100080006D832D813E818B819C81A901481B590B79
:10009000CA019A83898389819A8145974CF462E0E9
:1000A00070E080E091E02AD980E090E01CD543C068
:1000B00089819A8189974CF462E070E083E091E055
:1000C0001DD981E090E00FD536C089819A81CD9706
:1000D0004CF462E070E086E091E010D982E090E0BC
:1000E00002D529C089819A81813591054CF462E05D
:1000F00070E089E091E002D983E090E0F4D41BC085
:1001000089819A81853691054CF462E070E08CE03B
:1001100091E0F4D884E090E0E6D40DC089819A8122
:100120008937910544F462E070E08FE091E0E6D811
:1001300085E090E0D8D4000026960FB6F894DEBF94
:100140000FBECDBFDF91CF910895CF93DF93CDB791
:10015000DEB7D4D06DD09FD00000DF91CF9108954D
:10016000CF93DF93CDB7DEB72C970FB6F894DEBFF1
:100170000FBECDBF69877A878B879C8789859A85D3
:10018000AB85BC858D839E83AF83B88719821A8225
:100190001B821C820BC089819A81AB81BC81019634
:1001A000A11DB11D89839A83AB83BC8329813A81C8
:1001B0004B815C818D819E81AF81B885281739077D
:1001C0004A075B0740F300002C960FB6F894DEBF99
:1001D0000FBECDBFDF91CF910895CF93DF93CDB701
:1001E000DEB78AE290E02AE230E0F901208120685F
:1001F000FC0120838BE290E02BE230E0F9012081CA
:100200002F77FC0120830000DF91CF910895CF93D9
:10021000DF93CDB7DEB78BE290E02BE230E0F9015F
:1002200020812068FC0120830000DF91CF91089598
:10023000CF93DF93CDB7DEB784E290E024E230E0E5
:10024000F90120812160FC0120830000DF91CF9122
:100250000895CF93DF93CDB7DEB785E290E025E236
:1002600030E0F90120812160FC0120830000DF9152
:10027000CF910895CF93DF93CDB7DEB785E290E0BD
:1002800025E230E0F90120812E7FFC01208300006F
:10029000DF91CF910895CF93DF93CDB7DEB784E29E
:1002A00090E024E230E0F90120812260FC0120830B
:1002B0000000DF91CF910895CF93DF93CDB7DEB7E4
:1002C00085E290E025E230E0F90120812260FC0126
:1002D00020830000DF91CF910895CF93DF93CDB7B6
:1002E000DEB785E290E025E230E0F90120812D7F44
:1002F000FC0120830000DF91CF910895CF93DF931D
:10030000CDB7DEB787E290E027E230E0F901208147
:100310002F60FC0120830000DF91CF910895CF93DF
:10032000DF931F92CDB7DEB7898388E290E028E2A1
:1003300030E0F9012081622F2981422F50E021E035
:1003400030E002C0220F331F4A95E2F7262BFC0152
:10035000208300000F90DF91CF910895CF93DF931A
:100360001F92CDB7DEB7898388E290E028E230E0C3
:10037000F9012081622F2981422F50E021E030E0F5
:1003800002C0220F331F4A95E2F720952623FC0175
:10039000208300000F90DF91CF910895CF93DF93DA
:1003A000CDB7DEB7D2DE66DF81E099D052DF60EAFA
:1003B0007FE080E090E0D4DE0000DF91CF910895EF
:1003C000CF93DF931F92CDB7DEB78983BEDE52DFB6
:1003D000898185D03EDF62E370E080E090E0C0DE9E
:1003E00000000F90DF91CF910895CF93DF931F927C
:1003F000CDB7DEB78983A9DE3DDF898170D029DFE3
:1004000062E370E080E090E0ABDE00000F90DF91EF
:10041000CF910895CF93DF9300D01F92CDB7DEB771
:100420008B8380E8898391DE25DF46DF1A821CC03A
:100430009B8189818923882349F08A81882F90E0D4
:100440008E5E9E4FFC0180816ADF08C08A81882F02
:1004500090E08E5E9E4FFC01808180DF89818695D1
:1004600089838A818F5F8A838A81843008F335DFAC
:1004700023DF8B8134D0EDDE62E370E080E090E03A
:100480006FDE00000F900F900F90DF91CF910895D5
:10049000CF93DF9300D01F92CDB7DEB78A836B83F3
:1004A00080E889838A81882F90E0865E9E4FFC01D8
:1004B00090818B81890F9981890F898346DEDADEED
:1004C00089810DD0C6DE62E370E080E090E048DE16
:1004D00000000F900F900F90DF91CF910895CF9370
:1004E000DF9300D01F92CDB7DEB78B8380E889837E
:1004F000E3DE1A8221C09B8189818923882349F008
:100500008A81882F90E08E5E9E4FFC01808107DFFC
:1005100008C08A81882F90E08E5E9E4FFC0180810A
:100520001DDF8981869589838A81833011F4D5DE28
:10053000C3DE8A818F5F8A838A818830E0F2CDDED4
:1005400000000F900F900F90DF91CF910895CF93FF
:10055000DF93CDB7DEB741DE60E573EC80E090E07D
:10056000FFDD55DE60E375E780E090E0F9DD88E2CD
:1005700051DF14DF86E024DF8EE037DF0000DF91FB
:10058000CF910895CF93DF931F92CDB7DEB78983C4
:10059000DCDD5FDE8981A3DF6DDE62E370E080E099
:1005A00090E0DEDD00000F90DF91CF910895CF93B2
:1005B000DF9300D000D0CDB7DEB79B838A836C83F6
:1005C0001982C3DD46DE19820DC08981882F90E033
:1005D0002A813B81820F931FFC018081D3DF8981B7
:1005E0008F5F898399818C81981778F343DE0000AF
:1005F0000F900F900F900F90DF91CF910895CF93B0
:10060000DF93CDB7DEB727970FB6F894DEBF0FBEE6
:10061000CDBF9DDF96D051D631D074D343D284E183
:1006200090E09A83898380E991E09C838B83298180
:100630003A8188EE93E0289FA001299F500D389FB2
:10064000500D11242B813C81CA01B901EED6CB019A
:1006500040979695879501969E838D838D818F8394
:100660008F81882F90E077D5000027960FB6F894F9
:10067000DEBF0FBECDBFDF91CF910895CF93DF9343
:10068000CDB7DEB78AE290E02AE230E0F9012081BE
:10069000277CFC0120830000DF91CF910895CF9348
:1006A000DF93CDB7DEB780911E0180937A018091F0
:1006B0001F0180937B0180912001809378018091BC
:1006C00021018093790189E290E0FC0180818072B0
:1006D00080931E0189E290E0FC018081807180930B
:1006E0001F0189E290E0FC018081887080932001E5
:1006F00089E290E0FC0180818470809321018091E7
:100700001E01882331F480917A01882311F081E061
:1007100015C080911F01882331F480917B018823CB
:1007200011F082E00BC080912001882331F4809188
:100730007801882311F083E001C080E0DF91CF9140
:100740000895CF93DF93CDB7DEB784E290E024E243
:1007500030E0F90120812460FC0120830000DF915A
:10076000CF910895CF93DF9300D000D000D0CDB7C4
:10077000DEB745DF85E68D8386EE90E09A83898338
:1007800025E0409127015091280160912901709145
:100790002A0180912B0190912C0136D020D38130F9
:1007A00049F461D3ECD39C838B838B819C814FEF85
:1007B00060E023D404D3813089F771DF8E838D818B
:1007C000882F90E085369105E9F489819A814D81E1
:1007D00061E013D48E81823031F489819A8105964B
:1007E0009A83898308C08E81813029F489819A8116
:1007F00005979A83898329813A818B819C81B901EC
:1008000035DC01C00000CACFCF93DF93CDB7DEB790
:1008100027970FB6F894DEBF0FBECDBF49835A832A
:100820006B837C838D839E832F8349815A816B8167
:100830007C818D819E81B6D120E043E060E080E044
:1008400068D120E849815A816B817C818D819E81AC
:10085000A2D02F8149815A816B817C818D819E81BB
:10086000ECD020E049815A816B817C818D819E8111
:10087000BBD020E049815A816B817C818D819E8132
:100880008AD0000027960FB6F894DEBF0FBECDBF0A
:10089000DF91CF910895EF92FF920F93CF93DF9363
:1008A000CDB7DEB72B970FB6F894DEBF0FBECDBF26
:1008B0004A835B836C837D838E839F83288709872C
:1008C000FB86EA864A815B816C817D818E819F8176
:1008D000A8D182E0FDD18885FBD119820DC0898124
:1008E000882F90E02A853B85820F931FFC01808131
:1008F000EFD189818F5F898399818985981778F3F2
:100900004A815B816C817D818E819F81B6D100009F
:100910002B960FB6F894DEBF0FBECDBFDF91CF91FF
:100920000F91FF90EF900895EF920F93CF93DF9385
:10093000CDB7DEB729970FB6F894DEBF0FBECDBF97
:1009400049835A836B837C838D839E832F8308879F
:10095000E98649815A816B817C818D819E8161D13B
:1009600085E0B6D18F81B4D18885B2D18985B0D1E7
:1009700049815A816B817C818D819E817ED100006D
:1009800029960FB6F894DEBF0FBECDBFDF91CF9191
:100990000F91EF900895EF920F93CF93DF93CDB720
:1009A000DEB727970FB6F894DEBF0FBECDBF4983E1
:1009B0005A836B837C838D839E832F83EF8000EE2D
:1009C0002FE049815A816B817C818D819E81ACDFD2
:1009D000000027960FB6F894DEBF0FBECDBFDF91A3
:1009E000CF910F91EF900895EF920F93CF93DF93F4
:1009F000CDB7DEB727970FB6F894DEBF0FBECDBFD9
:100A000049835A836B837C838D839E832F83EF80FE
:100A100007E02FE049815A816B817C818D819E8125
:100A200083DF000027960FB6F894DEBF0FBECDBF60
:100A3000DF91CF910F91EF900895EF92FF920F9376
:100A4000CF93DF93CDB7DEB727970FB6F894DEBF0D
:100A50000FBECDBF49835A836B837C838D839E8376
:100A60002F838F81282F30E0C901880F991F820FB3
:100A7000931F835D9E4F7C0103E028E249815A81E8
:100A80006B817C818D819E8106DF000027960FB6E9
:100A9000F894DEBF0FBECDBFDF91CF910F91FF90D5
:100AA000EF900895CF93DF93CDB7DEB78AE290E061
:100AB0002AE230E0F90120812064FC01208384E4F3
:100AC00090E023E8FC01208385E490E025E0FC0130
:100AD000208387E490E020914501FC012083000001
:100AE000DF91CF910895CF93DF931F92CDB7DEB7FB
:100AF000898387E490E02981222F30E02B5B3E4FF1
:100B0000F9012081FC01208300000F90DF91CF913B
:100B10000895CF93DF9300D000D0CDB7DEB789839F
:100B20006A834B832C8384E290E024E230E0F90175
:100B300020812860FC01208384E290E024E230E000
:100B4000F90120812F7EFC01208384E290E024E2E1
:100B500030E0F90120812062FC0120838CE490E0E8
:100B600039812A81432F422B2B81222F30E0220F03
:100B7000331F220F331F342F322B2C812370232B52
:100B80002065FC0120838DE490E02C81269526953C
:100B9000FC01208300000F900F900F900F90DF91C9
:100BA000CF910895CF93DF9300D000D000D0CDB780
:100BB000DEB749835A836B837C838D839E838981CF
:100BC0009A8129813A81F9012081622F2D81422F5A
:100BD00050E021E030E002C0220F331F4A95E2F7D7
:100BE000262BFC0120838B819C812B813C81F90188
:100BF0002081622F2D81422F50E021E030E002C0A1
:100C0000220F331F4A95E2F7262BFC0120830000B8
:100C100026960FB6F894DEBF0FBECDBFDF91CF9101
:100C20000895CF93DF9300D000D000D0CDB7DEB7CA
:100C300049835A836B837C838D839E838B819C81C4
:100C40002B813C81F9012081622F2D81422F50E0C0
:100C500021E030E002C0220F331F4A95E2F72095D1
:100C60002623FC012083000026960FB6F894DEBFF1
:100C70000FBECDBFDF91CF910895CF93DF9300D00A
:100C800000D000D0CDB7DEB749835A836B837C8315
:100C90008D839E838B819C812B813C81F9012081F6
:100CA000622F2D81422F50E021E030E002C0220F60
:100CB000331F4A95E2F7262BFC012083000026967D
:100CC0000FB6F894DEBF0FBECDBFDF91CF91089570
:100CD000CF93DF931F92CDB7DEB789838EE490E088
:100CE0002981FC01208300008DE490E0FC018081DB
:100CF0008823D4F78EE490E0FC0180810F90DF918F
:100D0000CF910895CF93DF93CDB7DEB780E890E021
:100D100020E830E0F90120812260FC01208381E895
:100D200090E021E830E0F90120812560FC0120837A
:100D300087E490E023EBFC0120838FE690E02FE630
:100D400030E0F90120812260FC01208378940000CA
:100D5000DF91CF9108951F920F9200905F000F9244
:100D600011248F93CF93DF93CDB7DEB781E08093CB
:100D70006C0180916D018F5F80936D0180916F0197
:100D80008F5F80936F0180916D01843629F41092FA
:100D90006D0181E080936E0180916F018A3029F4AA
:100DA00010926F0181E0809370010000DF91CF917C
:100DB0008F910F9000925F000F901F901895CF9326
:100DC000DF93CDB7DEB780916C01813021F41092B2
:100DD0006C0181E001C080E0DF91CF910895CF9355
:100DE000DF93CDB7DEB780917001813021F410928E
:100DF000700181E001C080E0DF91CF9108951F92E2
:100E00000F9200905F000F9211248F93CF93DF9386
:100E1000CDB7DEB781E080937101809173018F5F60
:100E200080937301809173018A3099F481E08093FB
:100E30007201809174018F5F80937401109273012D
:100E4000809174018A3029F481E0809375011092B9
:100E500074010000DF91CF918F910F9000925F009D
:100E60000F901F901895CF93DF9300D01F92CDB7AE
:100E7000DEB780914B01880F898382D189EB90E0A6
:100E8000FC018081882F90E0887F9927089711F0D6
:100E900081E06FC0898195D189EB90E0FC01808170
:100EA000882F90E0887F9927489711F081E061C0F2
:100EB0008091760186D189EB90E0FC018081882FBA
:100EC00090E0887F9927889711F081E052C058D12F
:100ED00089EB90E0FC018081882F90E0887F992742
:100EE000409711F081E045C080914B01882F90E040
:100EF000880F991F81608983898163D189EB90E094
:100F0000FC018081882F90E0887F992780349105AB
:100F100011F081E02EC071D18A8389EB90E0FC0151
:100F20008081882F90E0887F99278035910511F086
:100F300081E01FC079D18B8389EB90E0FC01808137
:100F4000882F90E0887F99278835910511F081E0FE
:100F500010C02AD18A81882F90E0382F22278B81D8
:100F6000882F90E0820F931F90937D0180937C01E6
:100F700080E00F900F900F90DF91CF910895CF9365
:100F8000DF93CDB7DEB780917C0190917D019923ED
:100F900044F480917C0190917D0190937D01809338
:100FA0007C0180917C0190917D01892F990F990B93
:100FB000880F991F9C01220F331F220F331FAC0192
:100FC000420F531F80917C0190917D019C01207FF5
:100FD0003327C901880F991F880F991F820F931F0C
:100FE000992314F481589F4F880F892F881F990BDC
:100FF000840F951FDF91CF910895CF93DF93CDB7E5
:10100000DEB7A6970FB6F894DEBF0FBECDBF9CA388
:101010008BA36DA34EA380E2ECE4F1E0DE01139616
:1010200001900D928A95E1F719821A828EA18F366E
:1010300021F48BE58BA38DE58AAB8BA19CA1992331
:101040000CF03FC08BA19CA19195819591099CA327
:101050008BA381E08A8335C08981813019F489812D
:101060008F5F89838DA1E82FF0E08981882F90E040
:101070002DE030E0281B390B8BA19CA14AE050E009
:10108000BA01E7D160E3680FCF0182959295907F16
:101090009827807F9827AE014F5F5F4F840F951F81
:1010A000820F931F0296FC0160838BA19CA12AE012
:1010B00030E0B901CED1CB019CA38BA389818F5F96
:1010C00089838BA19CA1892B39F68A81813019F5FE
:1010D0008981813019F489818E5F89838DA1282FC0
:1010E00030E08981882F90E04DE050E0BA01681B24
:1010F000790BCB0122953295307F3227207F322722
:10110000AE014F5F5F4F240F351F820F931F029672
:101110002DE2FC01208360E08DA1BAD98DA1882F3A
:1011200090E09E012D5F3F4F82959295907F98278A
:10113000807F9827820F931F60E139DA60E082E0B8
:10114000A7D90000A6960FB6F894DEBF0FBECDBF9C
:10115000DF91CF910895CF93DF931F92CDB7DEB784
:1011600089838CEB90E024E4FC01208388EB90E001
:101170002981FC01208300000F90DF91CF91089519
:10118000CF93DF93CDB7DEB78CEB90E024EAFC0180
:10119000208300008CEB90E0FC0180818823D4F751
:1011A0000000DF91CF910895CF93DF93CDB7DEB7E5
:1011B0008CEB90E024E9FC0120830000DF91CF91CB
:1011C0000895CF93DF931F92CDB7DEB789838BEB62
:1011D00090E02981FC0120838CEB90E024E8FC0165
:1011E000208300008CEB90E0FC0180818823D4F701
:1011F00000000F90DF91CF910895CF93DF93CDB78B
:10120000DEB78CEB90E024ECFC01208300008CEB3B
:1012100090E0FC0180818823D4F78BEB90E0FC0107
:101220008081DF91CF910895CF93DF93CDB7DEB763
:101230008CEB90E024E8FC01208300008CEB90E034
:10124000FC0180818823D4F78BEB90E0FC01808146
:10125000DF91CF9108951F920F9200905F000F923F
:1012600011242F933F938F939F93EF93FF93CF93EB
:10127000DF93CDB7DEB781E08093770189EB90E013
:10128000FC018081887F80937E018CEB90E02CEBC9
:1012900030E0F90120812068FC0120830000DF910B
:1012A000CF91FF91EF919F918F913F912F910F904F
:1012B00000925F000F901F901895CF93DF93CDB7EA
:1012C000DEB780912201909123012091220130917B
:1012D0002301F9012081622F20912601422F50E045
:1012E00021E030E002C0220F331F4A95E2F7262B9F
:1012F000FC0120830000DF91CF910895CF93DF930D
:1013000000D000D0CDB7DEB79A8389837C836B830E
:101310008091240190912501209124013091250193
:10132000F9012081622F20912601422F50E021E017
:1013300030E002C0220F331F4A95E2F720952623A2
:10134000FC012083809124019091250190938601D6
:10135000809385018091260180937F0189819A8104
:101360009093840180938301CE0103969093810131
:1013700080938001F8943F934F935F936F937F9393
:101380008F939F93AF93BF93CF93DF93EF93FF938D
:1013900090917F01A0918301B0918401E09180013F
:1013A000F0918101C191D081E0918501F0E041E0AF
:1013B000903019F09A95440FFBCF342F30957EEF83
:1013C0008D91880F60F05081542B508350815323AE
:1013D0005083000000000000000000000CC050819D
:1013E000542B5083000000000000000000000000AB
:1013F000508153235083770F20F3219700F7FF91FB
:10140000EF91DF91CF91BF91AF919F918F917F919C
:101410006F915F914F913F91789400000F900F90E2
:101420000F900F90DF91CF910895AA1BBB1B51E144
:1014300007C0AA1FBB1FA617B70710F0A61BB70B44
:10144000881F991F5A95A9F780959095BC01CD01E9
:10145000089597FB072E16F4009406D077FD08D068
:10146000E4DF07FC05D03EF4909581959F4F0895E9
:0C147000709561957F4F0895F894FFCFB0
:10147C00070000050200030400020401000403003D
:10148C000700030201000302010000401050FFFF9F
:10149C00FFFF2A002B000224002500030105B131B7
:1014AC0005B11805B10905B10405B10305B1010574
:1014BC00B1000289002C261E17100A4820416374C3
:1014CC0075616C3A202020302E30432020546172FC
:0C14DC006765743A202020302E30432039
:00000001FF
