:1000000019C033C032C031C030C02FC02EC02FC085
:100010002CC02BC02AC029C028C027C026C025C09C
:1000200024C023C022C021C020C01FC01EC01DC0CC
:1000300045C01BC011241FBECFEFD4E0DEBFCDBF33
:1000400011E0A0E0B1E0EAEFF0E002C005900D920F
:10005000A030B107D9F721E0A0E0B1E001C01D92C6
:10006000A730B207E1F702D046C0CACFFFCF1F9238
:100070000F920FB60F9211248F9381E080930401A9
:10008000809102018F5F809302018A3089F481E0C0
:1000900080930301809101018F5F80930101109291
:1000A00002018A3029F481E080930001109201015D
:1000B0008F910F900FBE0F901F9018951F920F9267
:1000C0000FB60F9211248F93EF93FF9381E08093EB
:1000D00005018091B900887F80930601ECEBF0E088
:1000E000808180688083FF91EF918F910F900FBE88
:0A00F0000F901F901895F894FFCFB1
:00000001FF
