:1000000019C033C032C031C030C02FC02EC012C89A
:100010002CC02BC02AC0BAC728C027C026C025C004
:1000200024C023C022C021C020C01FC01EC01DC0CC
:100030007FC91BC011241FBECFEFD4E0DEBFCDBFF0
:1000400011E0A0E0B1E0E6E8F5E102C005900D9214
:10005000AE36B107D9F721E0AEE6B1E001C01D929E
:10006000AC38B207E1F752D48CCACACFCF93DF9332
:10007000CDB7DEB728970FB6F894DEBF0FBECDBF61
:100080009C838B837E836D834F8328872D813E8164
:100090008B819C81A901481B590BCA019A838983D2
:1000A0008885882F90E022273327281B390B8981E8
:1000B0009A818217930714F480E06FC08885282FF7
:1000C00030E089819A818217930774F08885882FA0
:1000D00090E024E130E0281B390B89819A81821756
:1000E000930714F481E059C08885882F90E09C0123
:1000F0002C5E3F4F89819A818217930774F088851F
:10010000882F90E028E230E0281B390B89819A8102
:100110008217930714F482E040C08885882F90E00E
:100120009C01285D3F4F89819A818217930774F063
:100130008885882F90E02CE330E0281B390B8981DB
:100140009A818217930714F483E027C08885882F4B
:1001500090E09C01245C3F4F89819A81821793072C
:1001600074F08885882F90E020E530E0281B390B5B
:1001700089819A818217930714F484E00EC08885E0
:10018000882F90E09C01205B3F4F89819A818217E4
:10019000930714F085E001C08F8128960FB6F8947C
:1001A000DEBF0FBECDBFDF91CF910895CF93DF9318
:1001B000CDB7DEB7D4D06DD09FD00000DF91CF9106
:1001C0000895CF93DF93CDB7DEB72C970FB6F89491
:1001D000DEBF0FBECDBF69877A878B879C878985F5
:1001E0009A85AB85BC858D839E83AF83B887198242
:1001F0001A821B821C820BC089819A81AB81BC81CF
:100200000196A11DB11D89839A83AB83BC8329818B
:100210003A814B815C818D819E81AF81B8852817A1
:1002200039074A075B0740F300002C960FB6F89495
:10023000DEBF0FBECDBFDF91CF910895CF93DF9387
:10024000CDB7DEB78AE290E02AE230E0F901208102
:100250002068FC0120838BE290E02BE230E0F90182
:1002600020812F77FC0120830000DF91CF9108953A
:10027000CF93DF93CDB7DEB78BE290E02BE230E097
:10028000F90120812068FC0120830000DF91CF91DB
:100290000895CF93DF93CDB7DEB784E290E024E2F8
:1002A00030E0F90120812160FC0120830000DF9112
:1002B000CF910895CF93DF93CDB7DEB785E290E07D
:1002C00025E230E0F90120812160FC01208300005B
:1002D000DF91CF910895CF93DF93CDB7DEB785E25D
:1002E00090E025E230E0F90120812E7FFC0120839F
:1002F0000000DF91CF910895CF93DF93CDB7DEB7A4
:1003000084E290E024E230E0F90120812260FC01E7
:1003100020830000DF91CF910895CF93DF93CDB775
:10032000DEB785E290E025E230E0F901208122602D
:10033000FC0120830000DF91CF910895CF93DF93DC
:10034000CDB7DEB785E290E025E230E0F90120810B
:100350002D7FFC0120830000DF91CF910895CF9382
:10036000DF93CDB7DEB787E290E027E230E0F90116
:1003700020812F60FC0120830000DF91CF91089540
:10038000CF93DF931F92CDB7DEB7898388E290E0E9
:1003900028E230E0F9012081622F2981422F50E0CC
:1003A00021E030E002C0220F331F4A95E2F7262BEE
:1003B000FC01208300000F90DF91CF910895CF932F
:1003C000DF931F92CDB7DEB7898388E290E028E201
:1003D00030E0F9012081622F2981422F50E021E095
:1003E00030E002C0220F331F4A95E2F72095262302
:1003F000FC01208300000F90DF91CF910895CF93EF
:10040000DF93CDB7DEB7D2DE66DF81E099D052DF71
:1004100060EA7FE080E090E0D4DE0000DF91CF91E1
:100420000895CF93DF931F92CDB7DEB78983BEDEE9
:1004300052DF898185D03EDF62E370E080E090E0AA
:10044000C0DE00000F90DF91CF910895CF93DF932E
:100450001F92CDB7DEB78983A9DE3DDF898170D0D9
:1004600029DF62E370E080E090E0ABDE00000F90F7
:10047000DF91CF910895CF93DF9300D01F92CDB736
:10048000DEB78B8380E8898391DE25DF46DF1A8221
:100490001CC09B8189818923882349F08A81882F08
:1004A00090E080509F4FFC0180816ADF08C08A8104
:1004B000882F90E080509F4FFC01808180DF8981F0
:1004C000869589838A818F5F8A838A81843008F345
:1004D00035DF23DF8B8134D0EDDE62E370E080E036
:1004E00090E06FDE00000F900F900F90DF91CF91A2
:1004F0000895CF93DF9300D01F92CDB7DEB78A83E4
:100500006B8380E889838A81882F90E0885F9E4F83
:10051000FC0190818B81890F9981890F898346DE47
:10052000DADE89810DD0C6DE62E370E080E090E023
:1005300048DE00000F900F900F90DF91CF9108954B
:10054000CF93DF9300D01F92CDB7DEB78B8380E8C7
:100550008983E3DE1A8221C09B81898189238823D4
:1005600049F08A81882F90E080509F4FFC01808164
:1005700007DF08C08A81882F90E080509F4FFC01E0
:1005800080811DDF8981869589838A81833011F47A
:10059000D5DEC3DE8A818F5F8A838A818830E0F26C
:1005A000CDDE00000F900F900F90DF91CF91089556
:1005B000CF93DF93CDB7DEB741DE60E573EC80E02B
:1005C00090E0FFDD55DE60E375E780E090E0F9DD67
:1005D00088E251DF14DF86E024DF8EE037DF0000A1
:1005E000DF91CF910895CF93DF931F92CDB7DEB700
:1005F0008983DCDD5FDE8981A3DF6DDE62E370E08D
:1006000080E090E0DEDD00000F90DF91CF91089553
:10061000CF93DF9300D000D0CDB7DEB79B838A8322
:100620006C831982C3DD46DE19820DC08981882F53
:1006300090E02A813B81820F931FFC018081D3DFF0
:1006400089818F5F898399818C81981778F343DE44
:1006500000000F900F900F900F90DF91CF910895B1
:10066000CF93DF93CDB7DEB7A6970FB6F894DEBF72
:100670000FBECDBF9CA38BA36DA34EA380E2EEE47F
:10068000F1E0DE01139601900D928A95E1F719824F
:100690001A828EA18F3621F48BE58BA38DE58AAB70
:1006A0008BA19CA199230CF03FC08BA19CA191959B
:1006B000819591099CA38BA381E08A8335C08981B0
:1006C000813019F489818F5F89838DA1E82FF0E053
:1006D0008981882F90E02DE030E0281B390B8BA119
:1006E0009CA14AE050E0BA0139D760E3680FCF011E
:1006F00082959295907F9827807F9827AE014F5FD3
:100700005F4F840F951F820F931F0296FC01608339
:100710008BA19CA12AE030E0B90120D7CB019CA39A
:100720008BA389818F5F89838BA19CA1892B39F64B
:100730008A81813019F58981813019F489818E5F30
:1007400089838DA1282F30E08981882F90E04DE0AA
:1007500050E0BA01681B790BCB0122953295307FAE
:100760003227207F3227AE014F5F5F4F240F351FA6
:10077000820F931F02962DE2FC01208360E08DA181
:10078000B8DE8DA1882F90E09E012D5F3F4F8295AE
:100790009295907F9827807F9827820F931F60E122
:1007A00037DF60E082E0A5DE0000A6960FB6F89481
:1007B000DEBF0FBECDBFDF91CF910895CF93DF9302
:1007C000CDB7DEB727970FB6F894DEBF0FBECDBF0B
:1007D000EFDE8BD0DFD531D0B0D37FD284E190E093
:1007E0009A83898380E991E09C838B8329813A8174
:1007F00088EE93E0289FA001299F500D389F500D4F
:1008000011242B813C81CA01B90194D6CB014097B8
:100810009695879501969E838D838D818F838F8199
:10082000882F90E005D5000027960FB6F894DEBF1C
:100830000FBECDBFDF91CF910895CF93DF93CDB79A
:10084000DEB78AE290E02AE230E0F9012081277CDD
:10085000FC0120830000DF91CF910895CF93DF93B7
:10086000CDB7DEB780910C0180937D0180910D01A1
:1008700080937E0180910E0180937C0189E290E05B
:10088000FC018081807280930C0189E290E0FC0180
:100890008081807180930D0189E290E0FC0180816C
:1008A000887080930E0180910C01882331F480912F
:1008B0007D01882311F081E015C080910D0188230E
:1008C00031F480917E01882311F082E00BC0809189
:1008D0000E01882331F480917C01882311F083E09C
:1008E00001C080E0DF91CF910895CF93DF93CDB722
:1008F000DEB784E290E024E230E0F9012081246058
:10090000FC0120830000DF91CF910895CF93DF9306
:1009100000D0CDB7DEB752DF85E6898325E0409170
:100920001401509115016091160170911701809189
:1009300018019091190183D0B1D33CD490938001D8
:1009400080937F0180916F01482F50E060911B01DF
:1009500070911C0180917F019091800120E030E036
:1009600085DB80936E0180916E0180936F0152D37D
:10097000813051F593D31ED49093800180937F01F1
:1009800080917F01909180014FEF60E069DE80915E
:100990001A01282F30E080916F01482F50E06091BC
:1009A0001B0170911C0180917F01909180015EDBA1
:1009B00080936E0180916E01A5D580916E01AED1BC
:1009C00080916E0180936F0115D3813081F646DFEF
:1009D0008A838981882F90E08536910521F08F36B2
:1009E000910511F12BC080911B0190911C0149814F
:1009F00061E036DE8A81823051F480911B01909152
:100A00001C01059690931C0180931B0116C08A81DE
:100A1000813099F480911B0190911C01059790936E
:100A20001C0180931B0109C080911B0190911C0146
:100A300090931C0180931B0101C0000098CFCF93BD
:100A4000DF93CDB7DEB727970FB6F894DEBF0FBEA2
:100A5000CDBF49835A836B837C838D839E832F8391
:100A600049815A816B817C818D819E81B6D120E044
:100A700043E060E080E068D120E849815A816B81E1
:100A80007C818D819E81A2D02F8149815A816B8189
:100A90007C818D819E81ECD020E049815A816B81DF
:100AA0007C818D819E81BBD020E049815A816B8100
:100AB0007C818D819E818AD0000027960FB6F894A4
:100AC000DEBF0FBECDBFDF91CF910895EF92FF92B1
:100AD0000F93CF93DF93CDB7DEB72B970FB6F89474
:100AE000DEBF0FBECDBF4A835B836C837D838E8365
:100AF0009F8328870987FB86EA864A815B816C8110
:100B00007D818E819F81A8D182E0FDD18885FBD136
:100B100019820DC08981882F90E02A853B85820F3C
:100B2000931FFC018081EFD189818F5F8983998137
:100B30008985981778F34A815B816C817D818E81EC
:100B40009F81B6D100002B960FB6F894DEBF0FBE82
:100B5000CDBFDF91CF910F91FF90EF900895EF926D
:100B60000F93CF93DF93CDB7DEB729970FB6F894E5
:100B7000DEBF0FBECDBF49835A836B837C838D83D9
:100B80009E832F830887E98649815A816B817C8106
:100B90008D819E8161D185E0B6D18F81B4D1888568
:100BA000B2D18985B0D149815A816B817C818D8197
:100BB0009E817ED1000029960FB6F894DEBF0FBE4D
:100BC000CDBFDF91CF910F91EF900895EF920F93EA
:100BD000CF93DF93CDB7DEB727970FB6F894DEBF7C
:100BE0000FBECDBF49835A836B837C838D839E83E5
:100BF0002F83EF8000EE2FE049815A816B817C8149
:100C00008D819E81ACDF000027960FB6F894DEBF81
:100C10000FBECDBFDF91CF910F91EF900895EF926E
:100C20000F93CF93DF93CDB7DEB727970FB6F89426
:100C3000DEBF0FBECDBF49835A836B837C838D8318
:100C40009E832F83EF8007E02FE049815A816B81DB
:100C50007C818D819E8183DF000027960FB6F894FA
:100C6000DEBF0FBECDBFDF91CF910F91EF90089502
:100C7000EF92FF920F93CF93DF93CDB7DEB7279715
:100C80000FB6F894DEBF0FBECDBF49835A836B8386
:100C90007C838D839E832F838F81282F30E0C90131
:100CA000880F991F820F931F835E9E4F7C0103E084
:100CB00028E249815A816B817C818D819E8106DF8A
:100CC000000027960FB6F894DEBF0FBECDBFDF91B0
:100CD000CF910F91FF90EF900895CF93DF93CDB711
:100CE000DEB78AE290E02AE230E0F9012081206458
:100CF000FC01208384E490E023E8FC01208385E468
:100D000090E025E0FC01208387E490E0209135010C
:100D1000FC0120830000DF91CF910895CF93DF93F2
:100D20001F92CDB7DEB7898387E490E02981222F17
:100D300030E02B5C3E4FF9012081FC012083000054
:100D40000F90DF91CF910895CF93DF9300D000D023
:100D5000CDB7DEB789836A834B832C8384E290E02E
:100D600024E230E0F90120812860FC01208384E244
:100D700090E024E230E0F90120812F7EFC01208305
:100D800084E290E024E230E0F90120812062FC015D
:100D900020838CE490E039812A81432F422B2B81E0
:100DA000222F30E0220F331F220F331F342F322B1C
:100DB0002C812370232B2065FC0120838DE490E09F
:100DC0002C8126952695FC01208300000F900F9022
:100DD0000F900F90DF91CF910895CF93DF9300D0C4
:100DE00000D000D0CDB7DEB749835A836B837C83B4
:100DF0008D839E8389819A8129813A81F90120819D
:100E0000622F2D81422F50E021E030E002C0220FFE
:100E1000331F4A95E2F7262BFC0120838B819C81AE
:100E20002B813C81F9012081622F2D81422F50E0DE
:100E300021E030E002C0220F331F4A95E2F7262B53
:100E4000FC012083000026960FB6F894DEBF0FBE8B
:100E5000CDBFDF91CF910895CF93DF9300D000D025
:100E600000D0CDB7DEB749835A836B837C838D83F3
:100E70009E838B819C812B813C81F9012081622F93
:100E80002D81422F50E021E030E002C0220F331FBD
:100E90004A95E2F720952623FC0120830000269640
:100EA0000FB6F894DEBF0FBECDBFDF91CF9108958E
:100EB000CF93DF9300D000D000D0CDB7DEB7498309
:100EC0005A836B837C838D839E838B819C812B8152
:100ED0003C81F9012081622F2D81422F50E021E0D9
:100EE00030E002C0220F331F4A95E2F7262BFC01A7
:100EF0002083000026960FB6F894DEBF0FBECDBF4C
:100F0000DF91CF910895CF93DF931F92CDB7DEB7D6
:100F100089838EE490E02981FC01208300008DE428
:100F200090E0FC0180818823D4F78EE490E0FC01FE
:100F300080810F90DF91CF910895CF93DF93CDB74C
:100F4000DEB780E890E020E830E0F90120812260FF
:100F5000FC01208381E890E021E830E0F901208164
:100F60002560FC01208387E490E023EBFC012083D3
:100F70008FE690E02FE630E0F90120812260FC014D
:100F8000208378940000DF91CF9108951F920F92F3
:100F900000905F000F9211248F93CF93DF93CDB712
:100FA000DEB781E080937001809171018F5F809343
:100FB0007101809173018F5F809373018091710142
:100FC000843629F41092710181E08093720180913E
:100FD00073018A3029F41092730181E080937401C7
:100FE0000000DF91CF918F910F9000925F000F90E2
:100FF0001F901895CF93DF93CDB7DEB78091700126
:10100000813021F41092700181E001C080E0DF9115
:10101000CF910895CF93DF93CDB7DEB78091740160
:10102000813021F41092740181E001C080E0DF91F1
:10103000CF9108951F920F9200905F000F9211249C
:101040008F93CF93DF93CDB7DEB781E080937501A7
:10105000809177018F5F80937701809177018A304B
:1010600099F481E080937601809178018F5F80937D
:10107000780110927701809178018A3029F481E01B
:1010800080937901109278010000DF91CF918F91C8
:101090000F9000925F000F901F901895CF93DF93F1
:1010A00000D01F92CDB7DEB780913B01880F8983B6
:1010B000D4D089EB90E0FC018081882F90E0887F7C
:1010C0009927089711F081E06FC08981E7D089EBFB
:1010D00090E0FC018081882F90E0887F99274897D5
:1010E00011F081E061C080917A01D8D089EB90E065
:1010F000FC018081882F90E0887F9927889711F0E4
:1011000081E052C0AAD089EB90E0FC018081882F59
:1011100090E0887F9927409711F081E045C0809149
:101120003B01882F90E0880F991F81608983898116
:10113000B5D089EB90E0FC018081882F90E0887F1A
:1011400099278034910511F081E02EC0C3D08A83A5
:1011500089EB90E0FC018081882F90E0887F9927BF
:101160008035910511F081E01FC0CBD08B8389EBD6
:1011700090E0FC018081882F90E0887F9927883556
:10118000910511F081E010C07CD08A81882F90E019
:10119000382F22278B81882F90E0820F931F909306
:1011A00082018093810180E00F900F900F90DF917A
:1011B000CF910895CF93DF93CDB7DEB780918101B2
:1011C00090918201992344F4809181019091820150
:1011D000909382018093810180918101909182019D
:1011E000892F990F990B880F991F9C01220F331F8C
:1011F000220F331FAC01420F531F80918101909148
:1012000082019C01207F3327C901880F991F880F15
:10121000991F820F931F992314F481589F4F880FB1
:10122000892F881F990B840F951FDF91CF91089507
:10123000CF93DF931F92CDB7DEB789838CEB90E01D
:1012400024E4FC01208388EB90E02981FC012083C9
:1012500000000F90DF91CF910895CF93DF93CDB72A
:10126000DEB78CEB90E024EAFC01208300008CEBDD
:1012700090E0FC0180818823D4F70000DF91CF91BA
:101280000895CF93DF93CDB7DEB78CEB90E024E9E0
:10129000FC0120830000DF91CF910895CF93DF936D
:1012A0001F92CDB7DEB789838BEB90E02981FC01DB
:1012B00020838CEB90E024E8FC01208300008CEB81
:1012C00090E0FC0180818823D4F700000F90DF912B
:1012D000CF910895CF93DF93CDB7DEB78CEB90E03D
:1012E00024ECFC01208300008CEB90E0FC01808169
:1012F0008823D4F78BEB90E0FC018081DF91CF91C4
:101300000895CF93DF93CDB7DEB78CEB90E024E860
:10131000FC01208300008CEB90E0FC01808188239D
:10132000D4F78BEB90E0FC018081DF91CF910895A1
:101330001F920F9200905F000F9211242F933F9302
:101340008F939F93EF93FF93CF93DF93CDB7DEB748
:1013500081E080937B0189EB90E0FC018081887FB4
:10136000809383018CEB90E02CEB30E0F90120813D
:101370002068FC0120830000DF91CF91FF91EF9165
:101380009F918F913F912F910F9000925F000F904E
:101390001F901895CF93DF93CDB7DEB780910F01E3
:1013A0009091100120910F0130911001F9012081DD
:1013B000622F20911301422F50E021E030E002C063
:1013C000220F331F4A95E2F7262BFC0120830000F1
:1013D000DF91CF910895CF93DF9300D000D0CDB7A8
:1013E000DEB79A8389837C836B838091110190910E
:1013F00012012091110130911201F9012081622F17
:1014000020911301422F50E021E030E002C0220F72
:10141000331F4A95E2F720952623FC012083809113
:1014200011019091120190938B0180938A01809118
:1014300013018093840189819A819093890180931B
:101440008801CE0103969093860180938501F894DC
:101450003F934F935F936F937F938F939F93AF933C
:10146000BF93CF93DF93EF93FF9390918401A0916B
:101470008801B0918901E0918501F0918601C191C7
:10148000D081E0918A01F0E041E0903019F09A9526
:10149000440FFBCF342F30957EEF8D91880F60F095
:1014A0005081542B508350815323508300000000FF
:1014B0000000000000000CC05081542B508300003D
:1014C0000000000000000000000050815323508302
:1014D000770F20F3219700F7FF91EF91DF91CF91E4
:1014E000BF91AF919F918F917F916F915F914F913C
:1014F0003F91789400000F900F900F900F90DF9124
:10150000CF910895CF93DF931F92CDB7DEB7898334
:101510008981282F30E0C901880F991F820F931FFE
:10152000845C9E4F62E070E056DF00000F90DF9118
:10153000CF910895AA1BBB1B51E107C0AA1FBB1F77
:10154000A617B70710F0A61BB70B881F991F5A954F
:10155000A9F780959095BC01CD01089597FB072EC2
:1015600016F4009406D077FD08D0E4DF07FC05D020
:101570003EF4909581959F4F0895709561957F4FAA
:061580000895F894FFCF6E
:10158600030201000302010000401050FFFFFF2A82
:10159600002B000224002500030105E60005B131F9
:1015A60005B11805B10905B10405B10305B1010579
:1015B600B1000289002C261E17100A4800000707F2
:1015C6000000030400020401000403000700204198
:1015D600637475616C3A202020302E3043202054ED
:0E15E60061726765743A202020302E30432059
:00000001FF
